{
  "contractName": "SupplyChain",
  "abi": [
    {
      "constant": true,
      "inputs": [
        {
          "name": "account",
          "type": "address"
        }
      ],
      "name": "isMill",
      "outputs": [
        {
          "name": "",
          "type": "bool"
        }
      ],
      "payable": false,
      "stateMutability": "view",
      "type": "function"
    },
    {
      "constant": false,
      "inputs": [
        {
          "name": "account",
          "type": "address"
        }
      ],
      "name": "addMill",
      "outputs": [],
      "payable": false,
      "stateMutability": "nonpayable",
      "type": "function"
    },
    {
      "constant": true,
      "inputs": [
        {
          "name": "account",
          "type": "address"
        }
      ],
      "name": "isShop",
      "outputs": [
        {
          "name": "",
          "type": "bool"
        }
      ],
      "payable": false,
      "stateMutability": "view",
      "type": "function"
    },
    {
      "constant": false,
      "inputs": [],
      "name": "renounceShop",
      "outputs": [],
      "payable": false,
      "stateMutability": "nonpayable",
      "type": "function"
    },
    {
      "constant": false,
      "inputs": [
        {
          "name": "account",
          "type": "address"
        }
      ],
      "name": "addCostumer",
      "outputs": [],
      "payable": false,
      "stateMutability": "nonpayable",
      "type": "function"
    },
    {
      "constant": false,
      "inputs": [],
      "name": "renounceOwnership",
      "outputs": [],
      "payable": false,
      "stateMutability": "nonpayable",
      "type": "function"
    },
    {
      "constant": false,
      "inputs": [
        {
          "name": "account",
          "type": "address"
        }
      ],
      "name": "addShop",
      "outputs": [],
      "payable": false,
      "stateMutability": "nonpayable",
      "type": "function"
    },
    {
      "constant": false,
      "inputs": [
        {
          "name": "account",
          "type": "address"
        }
      ],
      "name": "addFarmer",
      "outputs": [],
      "payable": false,
      "stateMutability": "nonpayable",
      "type": "function"
    },
    {
      "constant": false,
      "inputs": [],
      "name": "renounceFarmer",
      "outputs": [],
      "payable": false,
      "stateMutability": "nonpayable",
      "type": "function"
    },
    {
      "constant": true,
      "inputs": [],
      "name": "owner",
      "outputs": [
        {
          "name": "",
          "type": "address"
        }
      ],
      "payable": false,
      "stateMutability": "view",
      "type": "function"
    },
    {
      "constant": true,
      "inputs": [],
      "name": "isOwner",
      "outputs": [
        {
          "name": "",
          "type": "bool"
        }
      ],
      "payable": false,
      "stateMutability": "view",
      "type": "function"
    },
    {
      "constant": true,
      "inputs": [
        {
          "name": "account",
          "type": "address"
        }
      ],
      "name": "isCostumer",
      "outputs": [
        {
          "name": "",
          "type": "bool"
        }
      ],
      "payable": false,
      "stateMutability": "view",
      "type": "function"
    },
    {
      "constant": true,
      "inputs": [
        {
          "name": "account",
          "type": "address"
        }
      ],
      "name": "isFarmer",
      "outputs": [
        {
          "name": "",
          "type": "bool"
        }
      ],
      "payable": false,
      "stateMutability": "view",
      "type": "function"
    },
    {
      "constant": false,
      "inputs": [],
      "name": "renounceCostumer",
      "outputs": [],
      "payable": false,
      "stateMutability": "nonpayable",
      "type": "function"
    },
    {
      "constant": false,
      "inputs": [],
      "name": "renounceMill",
      "outputs": [],
      "payable": false,
      "stateMutability": "nonpayable",
      "type": "function"
    },
    {
      "constant": false,
      "inputs": [
        {
          "name": "newOwner",
          "type": "address"
        }
      ],
      "name": "transferOwnership",
      "outputs": [],
      "payable": false,
      "stateMutability": "nonpayable",
      "type": "function"
    },
    {
      "inputs": [],
      "payable": true,
      "stateMutability": "payable",
      "type": "constructor"
    },
    {
      "anonymous": false,
      "inputs": [
        {
          "indexed": false,
          "name": "upc",
          "type": "uint256"
        }
      ],
      "name": "Harvested",
      "type": "event"
    },
    {
      "anonymous": false,
      "inputs": [
        {
          "indexed": false,
          "name": "upc",
          "type": "uint256"
        }
      ],
      "name": "Pressed",
      "type": "event"
    },
    {
      "anonymous": false,
      "inputs": [
        {
          "indexed": false,
          "name": "upc",
          "type": "uint256"
        }
      ],
      "name": "Bottled",
      "type": "event"
    },
    {
      "anonymous": false,
      "inputs": [
        {
          "indexed": false,
          "name": "upc",
          "type": "uint256"
        }
      ],
      "name": "Delivered",
      "type": "event"
    },
    {
      "anonymous": false,
      "inputs": [
        {
          "indexed": false,
          "name": "upc",
          "type": "uint256"
        }
      ],
      "name": "InShop",
      "type": "event"
    },
    {
      "anonymous": false,
      "inputs": [
        {
          "indexed": false,
          "name": "upc",
          "type": "uint256"
        }
      ],
      "name": "Sold",
      "type": "event"
    },
    {
      "anonymous": false,
      "inputs": [
        {
          "indexed": true,
          "name": "account",
          "type": "address"
        }
      ],
      "name": "CostumerAdded",
      "type": "event"
    },
    {
      "anonymous": false,
      "inputs": [
        {
          "indexed": true,
          "name": "account",
          "type": "address"
        }
      ],
      "name": "CostumerRemoved",
      "type": "event"
    },
    {
      "anonymous": false,
      "inputs": [
        {
          "indexed": true,
          "name": "account",
          "type": "address"
        }
      ],
      "name": "ShopAdded",
      "type": "event"
    },
    {
      "anonymous": false,
      "inputs": [
        {
          "indexed": true,
          "name": "account",
          "type": "address"
        }
      ],
      "name": "ShopRemoved",
      "type": "event"
    },
    {
      "anonymous": false,
      "inputs": [
        {
          "indexed": true,
          "name": "account",
          "type": "address"
        }
      ],
      "name": "MillAdded",
      "type": "event"
    },
    {
      "anonymous": false,
      "inputs": [
        {
          "indexed": true,
          "name": "account",
          "type": "address"
        }
      ],
      "name": "MillRemoved",
      "type": "event"
    },
    {
      "anonymous": false,
      "inputs": [
        {
          "indexed": true,
          "name": "account",
          "type": "address"
        }
      ],
      "name": "FarmerAdded",
      "type": "event"
    },
    {
      "anonymous": false,
      "inputs": [
        {
          "indexed": true,
          "name": "account",
          "type": "address"
        }
      ],
      "name": "FarmerRemoved",
      "type": "event"
    },
    {
      "anonymous": false,
      "inputs": [
        {
          "indexed": true,
          "name": "oldOwner",
          "type": "address"
        },
        {
          "indexed": true,
          "name": "newOwner",
          "type": "address"
        }
      ],
      "name": "TransferOwnership",
      "type": "event"
    },
    {
      "constant": false,
      "inputs": [],
      "name": "kill",
      "outputs": [],
      "payable": false,
      "stateMutability": "nonpayable",
      "type": "function"
    },
    {
      "constant": false,
      "inputs": [
        {
          "name": "_productionId",
          "type": "uint256"
        },
        {
          "name": "_farmerName",
          "type": "string"
        },
        {
          "name": "_harvestDate",
          "type": "uint256"
        },
        {
          "name": "_fieldId",
          "type": "uint256"
        },
        {
          "name": "_fieldName",
          "type": "string"
        },
        {
          "name": "_latitude",
          "type": "string"
        },
        {
          "name": "_longitude",
          "type": "string"
        }
      ],
      "name": "harvest",
      "outputs": [],
      "payable": false,
      "stateMutability": "nonpayable",
      "type": "function"
    },
    {
      "constant": false,
      "inputs": [
        {
          "name": "_productionId",
          "type": "uint256"
        },
        {
          "name": "_millName",
          "type": "string"
        },
        {
          "name": "_amountLiters",
          "type": "uint256"
        },
        {
          "name": "_pressDate",
          "type": "uint256"
        }
      ],
      "name": "press",
      "outputs": [],
      "payable": false,
      "stateMutability": "nonpayable",
      "type": "function"
    },
    {
      "constant": false,
      "inputs": [
        {
          "name": "_productionID",
          "type": "uint256"
        },
        {
          "name": "_bottlingDate",
          "type": "uint256"
        }
      ],
      "name": "bottling",
      "outputs": [],
      "payable": false,
      "stateMutability": "nonpayable",
      "type": "function"
    },
    {
      "constant": false,
      "inputs": [
        {
          "name": "_productionID",
          "type": "uint256"
        },
        {
          "name": "_deliveryDate",
          "type": "uint256"
        }
      ],
      "name": "deliver",
      "outputs": [],
      "payable": false,
      "stateMutability": "nonpayable",
      "type": "function"
    },
    {
      "constant": false,
      "inputs": [
        {
          "name": "_productionID",
          "type": "uint256"
        },
        {
          "name": "_inShopDate",
          "type": "uint256"
        },
        {
          "name": "_price",
          "type": "uint256"
        }
      ],
      "name": "getDelivery",
      "outputs": [],
      "payable": false,
      "stateMutability": "nonpayable",
      "type": "function"
    },
    {
      "constant": false,
      "inputs": [
        {
          "name": "_upc",
          "type": "uint256"
        }
      ],
      "name": "sellBottle",
      "outputs": [],
      "payable": true,
      "stateMutability": "payable",
      "type": "function"
    },
    {
      "constant": true,
      "inputs": [
        {
          "name": "_productionID",
          "type": "uint256"
        }
      ],
      "name": "fetchOilProduction",
      "outputs": [
        {
          "name": "",
          "type": "address"
        },
        {
          "name": "",
          "type": "address"
        },
        {
          "name": "",
          "type": "address"
        },
        {
          "name": "",
          "type": "address"
        },
        {
          "name": "",
          "type": "string"
        },
        {
          "name": "",
          "type": "string"
        },
        {
          "name": "",
          "type": "uint256"
        },
        {
          "name": "",
          "type": "uint256"
        }
      ],
      "payable": false,
      "stateMutability": "view",
      "type": "function"
    },
    {
      "constant": true,
      "inputs": [
        {
          "name": "_upc",
          "type": "uint256"
        }
      ],
      "name": "fetchBottle",
      "outputs": [
        {
          "name": "",
          "type": "uint256"
        },
        {
          "name": "",
          "type": "uint256"
        },
        {
          "name": "",
          "type": "address"
        },
        {
          "name": "",
          "type": "address"
        },
        {
          "name": "",
          "type": "address"
        },
        {
          "name": "",
          "type": "address"
        },
        {
          "name": "",
          "type": "uint256"
        },
        {
          "name": "",
          "type": "uint256"
        }
      ],
      "payable": false,
      "stateMutability": "view",
      "type": "function"
    }
  ],
  "bytecode": "0x6080604052336000806101000a81548173ffffffffffffffffffffffffffffffffffffffff021916908373ffffffffffffffffffffffffffffffffffffffff1602179055506000809054906101000a900473ffffffffffffffffffffffffffffffffffffffff1673ffffffffffffffffffffffffffffffffffffffff16600073ffffffffffffffffffffffffffffffffffffffff167f5c486528ec3e3f0ea91181cff8116f02bfa350e03b8b6f12e00765adbb5af85c60405160405180910390a3620000d1336200015b60201b60201c565b620000e233620001bc60201b60201c565b620000f3336200021c60201b60201c565b62000104336200027d60201b60201c565b33600560006101000a81548173ffffffffffffffffffffffffffffffffffffffff021916908373ffffffffffffffffffffffffffffffffffffffff1602179055506001600681905550600160088190555062000427565b62000176816001620002de60201b62002e781790919060201c565b8073ffffffffffffffffffffffffffffffffffffffff167f2e0ded4123377a3c2bc9a26f1717655a129e2f20752924d42e730ec89c83dbd060405160405180910390a250565b620001d7816002620002de60201b62002e781790919060201c565b8073ffffffffffffffffffffffffffffffffffffffff167ea0477dded24b6f3ca0efb56770e84d7af0117bde8073e93a34e2f0b67f629260405160405180910390a250565b62000237816003620002de60201b62002e781790919060201c565b8073ffffffffffffffffffffffffffffffffffffffff167f121731828b85b443d173e8dc86615a38927a5b1035349922533c0b02faa1103d60405160405180910390a250565b62000298816004620002de60201b62002e781790919060201c565b8073ffffffffffffffffffffffffffffffffffffffff167f37f2bb8f4596c61172526eb12f70fe6a1a9653a0b5fedbe1031b7a2bf71a27eb60405160405180910390a250565b600073ffffffffffffffffffffffffffffffffffffffff168173ffffffffffffffffffffffffffffffffffffffff1614156200031957600080fd5b6200032b82826200039460201b60201c565b156200033657600080fd5b60018260000160008373ffffffffffffffffffffffffffffffffffffffff1673ffffffffffffffffffffffffffffffffffffffff16815260200190815260200160002060006101000a81548160ff0219169083151502179055505050565b60008073ffffffffffffffffffffffffffffffffffffffff168273ffffffffffffffffffffffffffffffffffffffff161415620003d057600080fd5b8260000160008373ffffffffffffffffffffffffffffffffffffffff1673ffffffffffffffffffffffffffffffffffffffff16815260200190815260200160002060009054906101000a900460ff16905092915050565b61330580620004376000396000f3fe6080604052600436106101665760003560e01c806374c8b385116100d15780638f32d59b1161008a578063dbf00fa911610064578063dbf00fa914610cb2578063e4fe915914610cf7578063e77f6d0514610d0e578063f2fde38b14610d2557610166565b80638f32d59b14610bb15780639e6edefc14610be0578063b942906914610c4957610166565b806374c8b385146107b157806378fbb04f14610a5c5780637b8ac66b14610aad57806380c3f96d14610af257806380fc0ce414610b435780638da5cb5b14610b5a57610166565b806341c0e1b51161012357806341c0e1b51461060757806343e5c8301461061e57806356c8bd921461063557806357c1f5d8146106865780636ffd163d146106b4578063715018a61461079a57610166565b8063058492161461016b578063150e34651461029b57806318b50d07146103045780631927ae21146103555780631d0e8a4d1461054f57806330023934146105b8575b600080fd5b34801561017757600080fd5b506101a46004803603602081101561018e57600080fd5b8101908080359060200190929190505050610d76565b604051808981526020018881526020018773ffffffffffffffffffffffffffffffffffffffff1673ffffffffffffffffffffffffffffffffffffffff1681526020018673ffffffffffffffffffffffffffffffffffffffff1673ffffffffffffffffffffffffffffffffffffffff1681526020018573ffffffffffffffffffffffffffffffffffffffff1673ffffffffffffffffffffffffffffffffffffffff1681526020018473ffffffffffffffffffffffffffffffffffffffff1673ffffffffffffffffffffffffffffffffffffffff1681526020018381526020018281526020019850505050505050505060405180910390f35b3480156102a757600080fd5b506102ea600480360360208110156102be57600080fd5b81019080803573ffffffffffffffffffffffffffffffffffffffff169060200190929190505050610fc5565b604051808215151515815260200191505060405180910390f35b34801561031057600080fd5b506103536004803603602081101561032757600080fd5b81019080803573ffffffffffffffffffffffffffffffffffffffff169060200190929190505050610fe2565b005b34801561036157600080fd5b5061038e6004803603602081101561037857600080fd5b8101908080359060200190929190505050611000565b604051808973ffffffffffffffffffffffffffffffffffffffff1673ffffffffffffffffffffffffffffffffffffffff1681526020018873ffffffffffffffffffffffffffffffffffffffff1673ffffffffffffffffffffffffffffffffffffffff1681526020018773ffffffffffffffffffffffffffffffffffffffff1673ffffffffffffffffffffffffffffffffffffffff1681526020018673ffffffffffffffffffffffffffffffffffffffff1673ffffffffffffffffffffffffffffffffffffffff1681526020018060200180602001858152602001848152602001838103835287818151815260200191508051906020019080838360005b838110156104a657808201518184015260208101905061048b565b50505050905090810190601f1680156104d35780820380516001836020036101000a031916815260200191505b50838103825286818151815260200191508051906020019080838360005b8381101561050c5780820151818401526020810190506104f1565b50505050905090810190601f1680156105395780820380516001836020036101000a031916815260200191505b509a505050505050505050505060405180910390f35b34801561055b57600080fd5b5061059e6004803603602081101561057257600080fd5b81019080803573ffffffffffffffffffffffffffffffffffffffff16906020019092919050505061121d565b604051808215151515815260200191505060405180910390f35b3480156105c457600080fd5b50610605600480360360608110156105db57600080fd5b8101908080359060200190929190803590602001909291908035906020019092919050505061123a565b005b34801561061357600080fd5b5061061c61150c565b005b34801561062a57600080fd5b5061063361157d565b005b34801561064157600080fd5b506106846004803603602081101561065857600080fd5b81019080803573ffffffffffffffffffffffffffffffffffffffff169060200190929190505050611588565b005b6106b26004803603602081101561069c57600080fd5b810190808035906020019092919050505061160f565b005b3480156106c057600080fd5b50610798600480360360808110156106d757600080fd5b8101908080359060200190929190803590602001906401000000008111156106fe57600080fd5b82018360208201111561071057600080fd5b8035906020019184600183028401116401000000008311171561073257600080fd5b91908080601f016020809104026020016040519081016040528093929190818152602001838380828437600081840152601f19601f82011690508083019250505050505050919291929080359060200190929190803590602001909291905050506119ad565b005b3480156107a657600080fd5b506107af611b37565b005b3480156107bd57600080fd5b50610a5a600480360360e08110156107d457600080fd5b8101908080359060200190929190803590602001906401000000008111156107fb57600080fd5b82018360208201111561080d57600080fd5b8035906020019184600183028401116401000000008311171561082f57600080fd5b91908080601f016020809104026020016040519081016040528093929190818152602001838380828437600081840152601f19601f8201169050808301925050505050505091929192908035906020019092919080359060200190929190803590602001906401000000008111156108a657600080fd5b8201836020820111156108b857600080fd5b803590602001918460018302840111640100000000831117156108da57600080fd5b91908080601f016020809104026020016040519081016040528093929190818152602001838380828437600081840152601f19601f8201169050808301925050505050505091929192908035906020019064010000000081111561093d57600080fd5b82018360208201111561094f57600080fd5b8035906020019184600183028401116401000000008311171561097157600080fd5b91908080601f016020809104026020016040519081016040528093929190818152602001838380828437600081840152601f19601f820116905080830192505050505050509192919290803590602001906401000000008111156109d457600080fd5b8201836020820111156109e657600080fd5b80359060200191846001830284011164010000000083111715610a0857600080fd5b91908080601f016020809104026020016040519081016040528093929190818152602001838380828437600081840152601f19601f820116905080830192505050505050509192919290505050611cb9565b005b348015610a6857600080fd5b50610aab60048036036020811015610a7f57600080fd5b81019080803573ffffffffffffffffffffffffffffffffffffffff1690602001909291905050506120f4565b005b348015610ab957600080fd5b50610af060048036036040811015610ad057600080fd5b810190808035906020019092919080359060200190929190505050612112565b005b348015610afe57600080fd5b50610b4160048036036020811015610b1557600080fd5b81019080803573ffffffffffffffffffffffffffffffffffffffff1690602001909291905050506123da565b005b348015610b4f57600080fd5b50610b586123f8565b005b348015610b6657600080fd5b50610b6f612403565b604051808273ffffffffffffffffffffffffffffffffffffffff1673ffffffffffffffffffffffffffffffffffffffff16815260200191505060405180910390f35b348015610bbd57600080fd5b50610bc661242c565b604051808215151515815260200191505060405180910390f35b348015610bec57600080fd5b50610c2f60048036036020811015610c0357600080fd5b81019080803573ffffffffffffffffffffffffffffffffffffffff169060200190929190505050612483565b604051808215151515815260200191505060405180910390f35b348015610c5557600080fd5b50610c9860048036036020811015610c6c57600080fd5b81019080803573ffffffffffffffffffffffffffffffffffffffff1690602001909291905050506124a0565b604051808215151515815260200191505060405180910390f35b348015610cbe57600080fd5b50610cf560048036036040811015610cd557600080fd5b8101908080359060200190929190803590602001909291905050506124bd565b005b348015610d0357600080fd5b50610d0c61293a565b005b348015610d1a57600080fd5b50610d23612945565b005b348015610d3157600080fd5b50610d7460048036036020811015610d4857600080fd5b81019080803573ffffffffffffffffffffffffffffffffffffffff169060200190929190505050612950565b005b600080600080600080600080610d8a612fcf565b600a60008b8152602001908152602001600020604051806101a00160405290816000820154815260200160018201548152602001600282015481526020016003820160009054906101000a900473ffffffffffffffffffffffffffffffffffffffff1673ffffffffffffffffffffffffffffffffffffffff1673ffffffffffffffffffffffffffffffffffffffff1681526020016004820160009054906101000a900473ffffffffffffffffffffffffffffffffffffffff1673ffffffffffffffffffffffffffffffffffffffff1673ffffffffffffffffffffffffffffffffffffffff1681526020016005820160009054906101000a900473ffffffffffffffffffffffffffffffffffffffff1673ffffffffffffffffffffffffffffffffffffffff1673ffffffffffffffffffffffffffffffffffffffff1681526020016006820160009054906101000a900473ffffffffffffffffffffffffffffffffffffffff1673ffffffffffffffffffffffffffffffffffffffff1673ffffffffffffffffffffffffffffffffffffffff168152602001600782015481526020016008820154815260200160098201548152602001600a8201548152602001600b8201548152602001600c820160009054906101000a900460ff166005811115610f6f57fe5b6005811115610f7a57fe5b81525050905080600001518160400151826060015183608001518460a001518560c001518660e001518761010001519850985098509850985098509850985050919395975091939597565b6000610fdb826002612a1f90919063ffffffff16565b9050919050565b610feb33610fc5565b610ff457600080fd5b610ffd81612ab1565b50565b6000806000806060806000806000600b60008b815260200190815260200160002090508060010160009054906101000a900473ffffffffffffffffffffffffffffffffffffffff168160020160009054906101000a900473ffffffffffffffffffffffffffffffffffffffff168260030160009054906101000a900473ffffffffffffffffffffffffffffffffffffffff168360040160009054906101000a900473ffffffffffffffffffffffffffffffffffffffff16846005018560060186600701548760080154838054600181600116156101000203166002900480601f01602080910402602001604051908101604052809291908181526020018280546001816001161561010002031660029004801561115e5780601f106111335761010080835404028352916020019161115e565b820191906000526020600020905b81548152906001019060200180831161114157829003601f168201915b50505050509350828054600181600116156101000203166002900480601f0160208091040260200160405190810160405280929190818152602001828054600181600116156101000203166002900480156111fa5780601f106111cf576101008083540402835291602001916111fa565b820191906000526020600020905b8154815290600101906020018083116111dd57829003601f168201915b505050505092509850985098509850985098509850985050919395975091939597565b6000611233826003612a1f90919063ffffffff16565b9050919050565b6112433361121d565b61124c57600080fd5b826003600581111561125a57fe5b600b6000838152602001908152602001600020600d0160009054906101000a900460ff16600581111561128957fe5b146112fc576040517f08c379a000000000000000000000000000000000000000000000000000000000815260040180806020018281038252600d8152602001807f4e6f742044656c6976657265640000000000000000000000000000000000000081525060200191505060405180910390fd5b6000600b60008681526020019081526020016000209050338160010160006101000a81548173ffffffffffffffffffffffffffffffffffffffff021916908373ffffffffffffffffffffffffffffffffffffffff160217905550338160040160006101000a81548173ffffffffffffffffffffffffffffffffffffffff021916908373ffffffffffffffffffffffffffffffffffffffff1602179055508381600b0181905550600481600d0160006101000a81548160ff021916908360058111156113c357fe5b021790555060008090505b81601001548110156114c9576000600a60008460110160008581526020019081526020016000205481526020019081526020016000209050338160030160006101000a81548173ffffffffffffffffffffffffffffffffffffffff021916908373ffffffffffffffffffffffffffffffffffffffff160217905550338160050160006101000a81548173ffffffffffffffffffffffffffffffffffffffff021916908373ffffffffffffffffffffffffffffffffffffffff1602179055508481600b0181905550600481600c0160006101000a81548160ff021916908360058111156114b657fe5b02179055505080806001019150506113ce565b507f2cc0966d70ef0763724446017250e9affaaee6480282b4a02e9a3d39a082a7e381600001546040518082815260200191505060405180910390a15050505050565b600560009054906101000a900473ffffffffffffffffffffffffffffffffffffffff1673ffffffffffffffffffffffffffffffffffffffff163373ffffffffffffffffffffffffffffffffffffffff16141561157b573373ffffffffffffffffffffffffffffffffffffffff16ff5b565b61158633612b0a565b565b61159133612483565b611603576040517f08c379a000000000000000000000000000000000000000000000000000000000815260040180806020018281038252601b8152602001807f4f6e6c79206120436f7374756d65722063616e20646f2074686973000000000081525060200191505060405180910390fd5b61160c81612b64565b50565b61161833612483565b61168a576040517f08c379a000000000000000000000000000000000000000000000000000000000815260040180806020018281038252601b8152602001807f4f6e6c79206120436f7374756d65722063616e20646f2074686973000000000081525060200191505060405180910390fd5b806004600581111561169857fe5b600a6000838152602001908152602001600020600c0160009054906101000a900460ff1660058111156116c757fe5b1461173a576040517f08c379a000000000000000000000000000000000000000000000000000000000815260040180806020018281038252600b8152602001807f4e6f7420696e2053686f7000000000000000000000000000000000000000000081525060200191505060405180910390fd5b600a6000838152602001908152602001600020600b0154803410156117c7576040517f08c379a000000000000000000000000000000000000000000000000000000000815260040180806020018281038252600f8152602001807f4e6f74205061696420456e6f756768000000000000000000000000000000000081525060200191505060405180910390fd5b826000600a60008681526020019081526020016000209050600581600c0160006101000a81548160ff0219169083600581111561180057fe5b0217905550338160030160006101000a81548173ffffffffffffffffffffffffffffffffffffffff021916908373ffffffffffffffffffffffffffffffffffffffff160217905550338160060160006101000a81548173ffffffffffffffffffffffffffffffffffffffff021916908373ffffffffffffffffffffffffffffffffffffffff16021790555060008160050160009054906101000a900473ffffffffffffffffffffffffffffffffffffffff1690508073ffffffffffffffffffffffffffffffffffffffff166108fc83600b01549081150290604051600060405180830381858888f193505050501580156118fe573d6000803e3d6000fd5b507f92f64ca637d023f354075a4be751b169c1a8a9ccb6d33cdd0cb352054399572782600101546040518082815260200191505060405180910390a150506000600a6000838152602001908152602001600020600b01549050600081340390503373ffffffffffffffffffffffffffffffffffffffff166108fc829081150290604051600060405180830381858888f193505050501580156119a4573d6000803e3d6000fd5b50505050505050565b6119b633610fc5565b6119bf57600080fd5b83600060058111156119cd57fe5b600b6000838152602001908152602001600020600d0160009054906101000a900460ff1660058111156119fc57fe5b14611a0657600080fd5b6000600b60008781526020019081526020016000209050338160010160006101000a81548173ffffffffffffffffffffffffffffffffffffffff021916908373ffffffffffffffffffffffffffffffffffffffff160217905550338160030160006101000a81548173ffffffffffffffffffffffffffffffffffffffff021916908373ffffffffffffffffffffffffffffffffffffffff16021790555084816006019080519060200190611abb92919061309a565b50828160080181905550600181600d0160006101000a81548160ff02191690836005811115611ae657fe5b02179055508381600c01819055507fbc3979d8d5506915d003e5226085458b0197152ba2fbb08d49992370051ba6ed81600001546040518082815260200191505060405180910390a1505050505050565b600560009054906101000a900473ffffffffffffffffffffffffffffffffffffffff1673ffffffffffffffffffffffffffffffffffffffff163373ffffffffffffffffffffffffffffffffffffffff1614611bfa576040517f08c379a000000000000000000000000000000000000000000000000000000000815260040180806020018281038252600e8152602001807f4e6f7420746865206f776e65722100000000000000000000000000000000000081525060200191505060405180910390fd5b600073ffffffffffffffffffffffffffffffffffffffff166000809054906101000a900473ffffffffffffffffffffffffffffffffffffffff1673ffffffffffffffffffffffffffffffffffffffff167f5c486528ec3e3f0ea91181cff8116f02bfa350e03b8b6f12e00765adbb5af85c60405160405180910390a360008060006101000a81548173ffffffffffffffffffffffffffffffffffffffff021916908373ffffffffffffffffffffffffffffffffffffffff160217905550565b611cc2336124a0565b611ccb57600080fd5b611cd361311a565b8781600001818152505033816020019073ffffffffffffffffffffffffffffffffffffffff16908173ffffffffffffffffffffffffffffffffffffffff168152505033816040019073ffffffffffffffffffffffffffffffffffffffff16908173ffffffffffffffffffffffffffffffffffffffff1681525050868160a00181905250858160e00181815250506000816101a001906005811115611d7357fe5b90816005811115611d8057fe5b8152505080600b6000836000015181526020019081526020016000206000820151816000015560208201518160010160006101000a81548173ffffffffffffffffffffffffffffffffffffffff021916908373ffffffffffffffffffffffffffffffffffffffff16021790555060408201518160020160006101000a81548173ffffffffffffffffffffffffffffffffffffffff021916908373ffffffffffffffffffffffffffffffffffffffff16021790555060608201518160030160006101000a81548173ffffffffffffffffffffffffffffffffffffffff021916908373ffffffffffffffffffffffffffffffffffffffff16021790555060808201518160040160006101000a81548173ffffffffffffffffffffffffffffffffffffffff021916908373ffffffffffffffffffffffffffffffffffffffff16021790555060a0820151816005019080519060200190611ede9291906131fa565b5060c0820151816006019080519060200190611efb9291906131fa565b5060e082015181600701556101008201518160080155610120820151816009015561014082015181600a015561016082015181600b015561018082015181600c01556101a082015181600d0160006101000a81548160ff02191690836005811115611f6257fe5b02179055506101c082015181600e019080519060200190611f849291906131fa565b506101e082015181601001559050506001600860008282540192505081905550611fac61327a565b85816000018181525050848160200181905250838160600181905250828160800181905250600181604001906001811115611fe357fe5b90816001811115611ff057fe5b8152505080600b600084600001518152602001908152602001600020600f016000600181526020019081526020016000206000820151816000015560208201518160010190805190602001906120479291906131fa565b5060408201518160020160006101000a81548160ff0219169083600181111561206c57fe5b0217905550606082015181600301908051906020019061208d9291906131fa565b5060808201518160040190805190602001906120aa9291906131fa565b509050507f8e55ccfc9778ff8eba1646d765cf1982537ce0f9257054a17b48aad74525018382600001516040518082815260200191505060405180910390a1505050505050505050565b6120fd3361121d565b61210657600080fd5b61210f81612bbe565b50565b61211b33610fc5565b61212457600080fd5b816002600581111561213257fe5b600b6000838152602001908152602001600020600d0160009054906101000a900460ff16600581111561216157fe5b146121d4576040517f08c379a000000000000000000000000000000000000000000000000000000000815260040180806020018281038252600b8152602001807f4e6f7420426f74746c656400000000000000000000000000000000000000000081525060200191505060405180910390fd5b6000600b60008581526020019081526020016000209050338160010160006101000a81548173ffffffffffffffffffffffffffffffffffffffff021916908373ffffffffffffffffffffffffffffffffffffffff160217905550338160040160006101000a81548173ffffffffffffffffffffffffffffffffffffffff021916908373ffffffffffffffffffffffffffffffffffffffff1602179055508281600a0181905550600381600d0160006101000a81548160ff0219169083600581111561229b57fe5b021790555060008090505b8160100154811015612398576000600a60008460110160008581526020019081526020016000205481526020019081526020016000209050338160030160006101000a81548173ffffffffffffffffffffffffffffffffffffffff021916908373ffffffffffffffffffffffffffffffffffffffff160217905550338160050160006101000a81548173ffffffffffffffffffffffffffffffffffffffff021916908373ffffffffffffffffffffffffffffffffffffffff160217905550600381600c0160006101000a81548160ff0219169083600581111561238557fe5b02179055505080806001019150506122a6565b507ffcc296b8bdd64e3f1d1faadef50cb2d6550f645316330fe57cb1dd7e0612ead081600001546040518082815260200191505060405180910390a150505050565b6123e3336124a0565b6123ec57600080fd5b6123f581612c18565b50565b61240133612c72565b565b60008060009054906101000a900473ffffffffffffffffffffffffffffffffffffffff16905090565b60008060009054906101000a900473ffffffffffffffffffffffffffffffffffffffff1673ffffffffffffffffffffffffffffffffffffffff163373ffffffffffffffffffffffffffffffffffffffff1614905090565b6000612499826004612a1f90919063ffffffff16565b9050919050565b60006124b6826001612a1f90919063ffffffff16565b9050919050565b6124c633610fc5565b6124cf57600080fd5b81600160058111156124dd57fe5b600b6000838152602001908152602001600020600d0160009054906101000a900460ff16600581111561250c57fe5b1461257f576040517f08c379a000000000000000000000000000000000000000000000000000000000815260040180806020018281038252600b8152602001807f4e6f74205072657373656400000000000000000000000000000000000000000081525060200191505060405180910390fd5b6000600b60008581526020019081526020016000209050828160090181905550600281600d0160006101000a81548160ff021916908360058111156125c057fe5b02179055506103e88160000154026007819055506000816010018190555060008090505b81600c01548110156128f8576125f8612fcf565b60065481602001818152505081600754018160000181815250506007546103e860065402018160400181815250508260000154816101400181815250508260030160009054906101000a900473ffffffffffffffffffffffffffffffffffffffff16816060019073ffffffffffffffffffffffffffffffffffffffff16908173ffffffffffffffffffffffffffffffffffffffff16815250508260030160009054906101000a900473ffffffffffffffffffffffffffffffffffffffff16816080019073ffffffffffffffffffffffffffffffffffffffff16908173ffffffffffffffffffffffffffffffffffffffff1681525050848160e001818152505080600a6000600654815260200190815260200160002060008201518160000155602082015181600101556040820151816002015560608201518160030160006101000a81548173ffffffffffffffffffffffffffffffffffffffff021916908373ffffffffffffffffffffffffffffffffffffffff16021790555060808201518160040160006101000a81548173ffffffffffffffffffffffffffffffffffffffff021916908373ffffffffffffffffffffffffffffffffffffffff16021790555060a08201518160050160006101000a81548173ffffffffffffffffffffffffffffffffffffffff021916908373ffffffffffffffffffffffffffffffffffffffff16021790555060c08201518160060160006101000a81548173ffffffffffffffffffffffffffffffffffffffff021916908373ffffffffffffffffffffffffffffffffffffffff16021790555060e082015181600701556101008201518160080155610120820151816009015561014082015181600a015561016082015181600b015561018082015181600c0160006101000a81548160ff021916908360058111156128a257fe5b0217905550905050600654836011016000848152602001908152602001600020819055506001836010016000828254019250508190555060016006600082825401925050819055505080806001019150506125e4565b507f8aff1823bf9f30e2f7eacb17de47cc2917592a34188a0b47c0c228c82c38fc5481600001546040518082815260200191505060405180910390a150505050565b61294333612ccc565b565b61294e33612d26565b565b600560009054906101000a900473ffffffffffffffffffffffffffffffffffffffff1673ffffffffffffffffffffffffffffffffffffffff163373ffffffffffffffffffffffffffffffffffffffff1614612a13576040517f08c379a000000000000000000000000000000000000000000000000000000000815260040180806020018281038252600e8152602001807f4e6f7420746865206f776e65722100000000000000000000000000000000000081525060200191505060405180910390fd5b612a1c81612d80565b50565b60008073ffffffffffffffffffffffffffffffffffffffff168273ffffffffffffffffffffffffffffffffffffffff161415612a5a57600080fd5b8260000160008373ffffffffffffffffffffffffffffffffffffffff1673ffffffffffffffffffffffffffffffffffffffff16815260200190815260200160002060009054906101000a900460ff16905092915050565b612ac5816002612e7890919063ffffffff16565b8073ffffffffffffffffffffffffffffffffffffffff167ea0477dded24b6f3ca0efb56770e84d7af0117bde8073e93a34e2f0b67f629260405160405180910390a250565b612b1e816003612f2490919063ffffffff16565b8073ffffffffffffffffffffffffffffffffffffffff167fd50d62b726467f70db12c0823c62ab5a8a5e5075539f68fdfa111b2e77f203e960405160405180910390a250565b612b78816004612e7890919063ffffffff16565b8073ffffffffffffffffffffffffffffffffffffffff167f37f2bb8f4596c61172526eb12f70fe6a1a9653a0b5fedbe1031b7a2bf71a27eb60405160405180910390a250565b612bd2816003612e7890919063ffffffff16565b8073ffffffffffffffffffffffffffffffffffffffff167f121731828b85b443d173e8dc86615a38927a5b1035349922533c0b02faa1103d60405160405180910390a250565b612c2c816001612e7890919063ffffffff16565b8073ffffffffffffffffffffffffffffffffffffffff167f2e0ded4123377a3c2bc9a26f1717655a129e2f20752924d42e730ec89c83dbd060405160405180910390a250565b612c86816001612f2490919063ffffffff16565b8073ffffffffffffffffffffffffffffffffffffffff167fa5e0f060af304ab17dd418c7927e3da3ae7868189bf387aee09ab179ccc572f260405160405180910390a250565b612ce0816004612f2490919063ffffffff16565b8073ffffffffffffffffffffffffffffffffffffffff167f7c5ae0e07939db69fda08596f8822b6c8b745657804957ef938a645cff7fb5f360405160405180910390a250565b612d3a816002612f2490919063ffffffff16565b8073ffffffffffffffffffffffffffffffffffffffff167f83d8cce936a4bacce731675cb6d6de235957309cc48eb6a36aa7ae1811eb9fab60405160405180910390a250565b600073ffffffffffffffffffffffffffffffffffffffff168173ffffffffffffffffffffffffffffffffffffffff161415612dba57600080fd5b8073ffffffffffffffffffffffffffffffffffffffff166000809054906101000a900473ffffffffffffffffffffffffffffffffffffffff1673ffffffffffffffffffffffffffffffffffffffff167f5c486528ec3e3f0ea91181cff8116f02bfa350e03b8b6f12e00765adbb5af85c60405160405180910390a3806000806101000a81548173ffffffffffffffffffffffffffffffffffffffff021916908373ffffffffffffffffffffffffffffffffffffffff16021790555050565b600073ffffffffffffffffffffffffffffffffffffffff168173ffffffffffffffffffffffffffffffffffffffff161415612eb257600080fd5b612ebc8282612a1f565b15612ec657600080fd5b60018260000160008373ffffffffffffffffffffffffffffffffffffffff1673ffffffffffffffffffffffffffffffffffffffff16815260200190815260200160002060006101000a81548160ff0219169083151502179055505050565b600073ffffffffffffffffffffffffffffffffffffffff168173ffffffffffffffffffffffffffffffffffffffff161415612f5e57600080fd5b612f688282612a1f565b612f7157600080fd5b60008260000160008373ffffffffffffffffffffffffffffffffffffffff1673ffffffffffffffffffffffffffffffffffffffff16815260200190815260200160002060006101000a81548160ff0219169083151502179055505050565b604051806101a00160405280600081526020016000815260200160008152602001600073ffffffffffffffffffffffffffffffffffffffff168152602001600073ffffffffffffffffffffffffffffffffffffffff168152602001600073ffffffffffffffffffffffffffffffffffffffff168152602001600073ffffffffffffffffffffffffffffffffffffffff16815260200160008152602001600081526020016000815260200160008152602001600081526020016000600581111561309457fe5b81525090565b828054600181600116156101000203166002900490600052602060002090601f016020900481019282601f106130db57805160ff1916838001178555613109565b82800160010185558215613109579182015b828111156131085782518255916020019190600101906130ed565b5b50905061311691906132b4565b5090565b60405180610200016040528060008152602001600073ffffffffffffffffffffffffffffffffffffffff168152602001600073ffffffffffffffffffffffffffffffffffffffff168152602001600073ffffffffffffffffffffffffffffffffffffffff168152602001600073ffffffffffffffffffffffffffffffffffffffff1681526020016060815260200160608152602001600081526020016000815260200160008152602001600081526020016000815260200160008152602001600060058111156131e657fe5b815260200160608152602001600081525090565b828054600181600116156101000203166002900490600052602060002090601f016020900481019282601f1061323b57805160ff1916838001178555613269565b82800160010185558215613269579182015b8281111561326857825182559160200191906001019061324d565b5b50905061327691906132b4565b5090565b6040518060a001604052806000815260200160608152602001600060018111156132a057fe5b815260200160608152602001606081525090565b6132d691905b808211156132d25760008160009055506001016132ba565b5090565b9056fea165627a7a72305820083771e2a9ab93b04eb9a39c2eef47a2d2ba2e178a51278d24f162918162caad0029",
  "source": "pragma solidity ^0.5.8;\n// Define a contract 'Supplychain'\nimport '../access_control/CostumerRole.sol';\nimport '../access_control/FarmerRole.sol';\nimport '../access_control/ShopRole.sol';\nimport '../access_control/MillRole.sol';\nimport '../core/Ownable.sol';\n\ncontract SupplyChain is Ownable, FarmerRole, MillRole, ShopRole, CostumerRole {\n\n  // Define 'owner'\n  address contractOwner;\n\n  // Define a variable called 'upc' for Universal Product Code (UPC)\n  uint  upc;\n\n  // Define a variable called 'sku' for Stock Keeping Unit (SKU)\n  uint  sku;\n\n  // Oil Production Sequence\n  uint oilProductionID;\n  // Fields for production\n  uint fieldIDs;\n\n  // Define a public mapping 'items' that maps the UPC to an Item.\n  mapping(uint => Bottle) bottles;\n  //\n  mapping(uint => OilProduction) oilProductions;\n\n\n  enum FieldState\n  {\n      Planted, // 0\n      Harvested // 1\n  }\n\n  uint constant factorProductID = 1000;\n\n  // Define enum 'State' with the following values:\n  enum State\n  {\n      Harvested,     // 0\n      Pressed,       // 1\n      Bottled,       // 2\n      Delivered,     // 3\n      InShop,         // 4\n      Sold           // 5\n  }\n\n  struct Field {\n      uint fieldID;          // Field ID\n      string fieldName;      // Field Name\n\n      FieldState fieldState; // state of planting\n\n      // Coordination of the Field\n      string latitude;\n      string longitude;\n  }\n\n  struct OilProduction {\n      uint productionID;    // ID of Oil Production\n\n      address ownerID;\n      address farmerID;     // Metamask-Ethereum address of the Farmer\n      address millID;       // Metamask-Ethereum address of the Mill, Redundancy with OilProduction\n      address shopID;\n\n      string farmerName;    // Name of the Farme\n      string millName;      // Name of the Mill\n\n      // Date of production step\n      uint harvestDate;\n      uint pressDate;\n      uint bottlingDate;\n      uint deliveryDate;\n      uint inShopDate;\n      uint amountLiters;\n\n      State productionState;  // state of production\n      string notice;\n\n      mapping (uint => Field) fields;\n      uint bottleCount;\n      mapping (uint => uint)  bottleIDs;\n  }\n\n  // Define a struct 'Item' with the following fields:\n  struct Bottle {\n      uint    sku;        // Stock Keeping Unit (SKU)\n      uint    upc;        // Universal Product Code (UPC), generated by the Farmer, goes on the package, can be verified by the Consumer\n      uint    productID;  // Product ID potentially a combination of upc + sku\n\n      address ownerID;    // Metamask-Ethereum address of the current owner as the product moves through 8 stages\n      address millID;\n      address shopID;     // Metamask-Ethereum address of the Shop,\n      address costumerID; // Metamask-Ethereum address of the Consumer,\n\n      uint    bottleDate;\n      uint    inShopDate;\n      uint    sellDate;\n\n      uint    oilProductionID;  // OilProduction ID (Foreign Key, Reference)\n      uint    price;            // Bottle Price\n\n      State   bottleState;      // Product State as represented in the enum above\n  }\n\n  // Define 8 events with the same 8 state values and accept 'upc' as input argument\n  event Harvested(uint upc);\n  event Pressed(uint upc);\n  event Bottled(uint upc);\n  event Delivered(uint upc);\n  event InShop(uint upc);\n  event Sold(uint upc);\n\n  // Define a modifer that checks to see if msg.sender == owner of the contract\n  modifier onlyOwner() {\n      require(msg.sender == contractOwner, \"Not the owner!\");\n      _;\n  }\n\n  // Define a modifer that verifies the Caller\n  modifier verifyCaller (address _address) {\n    require(msg.sender == _address, \"Not the Caller\");\n    _;\n  }\n\n  // Define a modifier that checks if the paid amount is sufficient to cover the price\n  modifier paidEnough(uint _price) {\n    require(msg.value >= _price, \"Not Paid Enough\");\n    _;\n  }\n\n  // Define a modifier that checks the price and refunds the remaining balance\n  modifier checkValue(uint _upc) {\n    _;\n    uint _price = bottles[_upc].price;\n    uint amountToReturn = msg.value - _price;\n    msg.sender.transfer(amountToReturn);\n  }\n\n  // Define a modifier that checks if an item.state of a upc is Harvested\n  modifier harvested(uint _productionID) {\n    require(oilProductions[_productionID].productionState == State.Harvested);\n    _;\n  }\n\n  // Define a modifier that checks if an item.state of a upc is Processed\n  modifier pressed(uint _productionID) {\n    require(oilProductions[_productionID].productionState == State.Pressed, \"Not Pressed\");\n    _;\n  }\n\n  // Define a modifier that checks if an item.state of a upc is Packed\n  modifier bottled(uint _productionID) {\n    require(oilProductions[_productionID].productionState == State.Bottled, \"Not Bottled\");\n    _;\n  }\n\n  // Define a modifier that checks if an item.state of a upc is ForSale\n  modifier delivered(uint _productionID) {\n    require(oilProductions[_productionID].productionState == State.Delivered, \"Not Delivered\");\n    _;\n  }\n\n  // Define a modifier that checks if an item.state of a upc is Sold\n  modifier inShop(uint _upc) {\n    require(bottles[_upc].bottleState == State.InShop, \"Not in Shop\");\n    _;\n  }\n\n  // Define a modifier that checks if an item.state of a upc is Shipped\n  modifier sold(uint _upc) {\n    require(bottles[_upc].bottleState  == State.Sold, \"Not Sold\");\n    _;\n  }\n\n  // In the constructor set 'owner' to the address that instantiated the contract\n  // and set 'sku' to 1\n  // and set 'upc' to 1\n  constructor() public payable {\n      contractOwner = msg.sender;\n      upc = 1;\n      oilProductionID = 1;\n  }\n\n  // Define a function 'kill' if required\n  function kill() public {\n    if (msg.sender == address(contractOwner)) {\n      selfdestruct(msg.sender);\n    }\n  }\n\n  // Define a function 'harvestItem' that allows a farmer to mark an item 'Harvested'\n  function harvest(uint _productionId, string memory  _farmerName, uint _harvestDate,\n      uint _fieldId, string memory _fieldName, string memory _latitude, string memory _longitude)\n      public\n      onlyFarmer()\n  {\n\n      OilProduction memory production;\n      production.productionID = _productionId;\n\n      production.ownerID = msg.sender;\n      production.farmerID = msg.sender;\n\n      production.farmerName = _farmerName;\n      production.harvestDate = _harvestDate;\n      production.productionState = State.Harvested;\n\n      oilProductions[production.productionID] = production;\n      oilProductionID += 1;\n\n      // Only one field data to show how it works (Prototype).\n      // In professional version separate method for add field, and get field data\n      Field memory field;\n      field.fieldID = _fieldId;\n      field.fieldName = _fieldName;\n      field.latitude = _latitude;\n      field.longitude = _longitude;\n      field.fieldState = FieldState.Harvested;\n      oilProductions[production.productionID].fields[1] = field;\n\n      // Emit the appropriate event\n      emit Harvested(production.productionID);\n  }\n\n  function press(uint _productionId, string memory _millName, uint _amountLiters, uint _pressDate)\n      public\n      onlyMill()\n      harvested(_productionId)\n  {\n      OilProduction storage production = oilProductions[_productionId];\n\n      production.ownerID = msg.sender;\n      production.millID = msg.sender;\n\n      production.millName = _millName;\n      production.pressDate = _pressDate;\n      production.productionState = State.Pressed;\n      production.amountLiters = _amountLiters;\n\n      emit Pressed(production.productionID);\n  }\n\n  function bottling(uint _productionID, uint _bottlingDate)\n      public\n      onlyMill\n      pressed(_productionID)\n  {\n      OilProduction storage production = oilProductions[_productionID];\n      production.bottlingDate = _bottlingDate;\n      production.productionState = State.Bottled;\n\n      // generate sku with oilProductionID at the beginning.\n      sku=(production.productionID * factorProductID);\n      production.bottleCount=0;\n      for (uint i=0; i < production.amountLiters; i++) {\n        Bottle memory bottle;\n        bottle.upc = upc;\n        bottle.sku = sku + i;\n\n        // generate productionID from upc and sku.\n        bottle.productID = (upc * factorProductID) + sku;\n        bottle.oilProductionID = production.productionID;\n        bottle.ownerID = production.millID;\n        bottle.millID = production.millID;\n        bottle.bottleDate = _bottlingDate;\n\n        bottles[upc] = bottle;\n        // List for delivery and later control\n        production.bottleIDs[i] = upc;\n        production.bottleCount += 1;\n        upc += 1;\n      }\n      emit Bottled(production.productionID);\n  }\n\n  function deliver(uint _productionID, uint _deliveryDate)\n      public\n      onlyMill\n      bottled(_productionID)\n   {\n      OilProduction storage production = oilProductions[_productionID];\n      production.ownerID = msg.sender;\n      production.shopID = msg.sender;\n      production.deliveryDate = _deliveryDate;\n      production.productionState = State.Delivered;\n\n      for (uint i=0; i < production.bottleCount; i++) {\n          Bottle storage bottle = bottles[production.bottleIDs[i]];\n          bottle.ownerID = msg.sender;\n          bottle.shopID = msg.sender;\n          bottle.bottleState = State.Delivered;\n      }\n\n      emit Delivered(production.productionID);\n  }\n\n\n  function getDelivery(uint _productionID, uint _inShopDate, uint _price)\n      public\n      onlyShop\n      delivered(_productionID)\n  {\n    OilProduction storage production = oilProductions[_productionID];\n    production.ownerID = msg.sender;\n    production.shopID = msg.sender;\n    production.inShopDate = _inShopDate;\n    production.productionState = State.InShop;\n\n    for (uint i=0; i < production.bottleCount; i++) {\n      Bottle storage bottle = bottles[production.bottleIDs[i]];\n      bottle.ownerID = msg.sender;\n      bottle.shopID = msg.sender;\n      bottle.price = _price;\n      bottle.bottleState = State.InShop;\n    }\n\n    emit InShop(production.productionID);\n  }\n\n  function sellBottle(uint _upc)\n    public\n    payable\n    onlyCostumer\n    inShop(_upc)\n    paidEnough(bottles[_upc].price)\n    checkValue(_upc)\n  {\n    Bottle storage bottle = bottles[_upc];\n\n    bottle.bottleState = State.Sold;\n    bottle.ownerID = msg.sender;\n    bottle.costumerID = msg.sender;\n\n    address payable shopID = address(uint160(bottle.shopID));\n    shopID.transfer(bottle.price);\n\n    emit Sold(bottle.upc);\n  }\n\n  function fetchOilProduction(uint _productionID) public view returns\n  (\n      address,\n      address,\n      address,\n      address,\n      string memory,\n      string memory,\n      uint,\n      uint\n\n  )\n  {\n      OilProduction storage oilProduction = oilProductions[_productionID];\n      return\n      (\n          oilProduction.ownerID,\n          oilProduction.farmerID,\n          oilProduction.millID,\n          oilProduction.shopID,\n          oilProduction.farmerName,\n          oilProduction.millName,\n          oilProduction.harvestDate,\n          oilProduction.pressDate\n      );\n  }\n\n\n  // Define a function 'fetchItemBufferTwo' that fetches the data\n  function fetchBottle(uint _upc) public view returns\n  (\n      uint,\n      uint,\n      address,\n      address,\n      address,\n      address,\n      uint,\n      uint\n  )\n  {\n    Bottle memory bottle = bottles[_upc];\n    return\n    (\n      bottle.sku,\n      bottle.productID,\n      bottle.ownerID,\n      bottle.millID,\n      bottle.shopID,\n      bottle.costumerID,\n      bottle.bottleDate,\n      bottle.inShopDate\n\n    );\n  }\n}\n",
  "sourcePath": "/Users/stefanzils/Documents/GitHub/organicOilSupply/project-6/contracts/base/SupplyChain.sol",
  "compiler": {
    "name": "solc",
    "version": "0.5.8+commit.23d335f2.Emscripten.clang"
  },
  "schemaVersion": "3.0.14",
  "updatedAt": "2019-09-21T00:03:37.707Z",
  "devdoc": {
    "methods": {}
  },
  "userdoc": {
    "methods": {
      "isOwner()": {
        "notice": "Check if the calling address is the owner of the contract"
      },
      "owner()": {
        "notice": "Look up the address of the owner"
      },
      "renounceOwnership()": {
        "notice": "Define a function to renounce ownerhip"
      },
      "transferOwnership(address)": {
        "notice": "Define a public function to transfer ownership"
      }
    }
  }
}