{
  "contractName": "CostumerRole",
  "abi": [
    {
      "inputs": [],
      "payable": false,
      "stateMutability": "nonpayable",
      "type": "constructor"
    },
    {
      "anonymous": false,
      "inputs": [
        {
          "indexed": true,
          "name": "account",
          "type": "address"
        }
      ],
      "name": "CostumerAdded",
      "type": "event"
    },
    {
      "anonymous": false,
      "inputs": [
        {
          "indexed": true,
          "name": "account",
          "type": "address"
        }
      ],
      "name": "CostumerRemoved",
      "type": "event"
    },
    {
      "constant": true,
      "inputs": [
        {
          "name": "account",
          "type": "address"
        }
      ],
      "name": "isCostumer",
      "outputs": [
        {
          "name": "",
          "type": "bool"
        }
      ],
      "payable": false,
      "stateMutability": "view",
      "type": "function"
    },
    {
      "constant": false,
      "inputs": [
        {
          "name": "account",
          "type": "address"
        }
      ],
      "name": "addCostumer",
      "outputs": [],
      "payable": false,
      "stateMutability": "nonpayable",
      "type": "function"
    },
    {
      "constant": false,
      "inputs": [],
      "name": "renounceCostumer",
      "outputs": [],
      "payable": false,
      "stateMutability": "nonpayable",
      "type": "function"
    }
  ],
  "bytecode": "0x608060405234801561001057600080fd5b506100293361002e640100000000026401000000009004565b6101e8565b61004f8160006100956401000000000261030a179091906401000000009004565b8073ffffffffffffffffffffffffffffffffffffffff167f37f2bb8f4596c61172526eb12f70fe6a1a9653a0b5fedbe1031b7a2bf71a27eb60405160405180910390a250565b600073ffffffffffffffffffffffffffffffffffffffff168173ffffffffffffffffffffffffffffffffffffffff16141515156100d157600080fd5b6100ea8282610154640100000000026401000000009004565b1515156100f657600080fd5b60018260000160008373ffffffffffffffffffffffffffffffffffffffff1673ffffffffffffffffffffffffffffffffffffffff16815260200190815260200160002060006101000a81548160ff0219169083151502179055505050565b60008073ffffffffffffffffffffffffffffffffffffffff168273ffffffffffffffffffffffffffffffffffffffff161415151561019157600080fd5b8260000160008373ffffffffffffffffffffffffffffffffffffffff1673ffffffffffffffffffffffffffffffffffffffff16815260200190815260200160002060009054906101000a900460ff16905092915050565b610495806101f76000396000f300608060405260043610610057576000357c0100000000000000000000000000000000000000000000000000000000900463ffffffff16806356c8bd921461005c5780639e6edefc1461009f578063e4fe9159146100fa575b600080fd5b34801561006857600080fd5b5061009d600480360381019080803573ffffffffffffffffffffffffffffffffffffffff169060200190929190505050610111565b005b3480156100ab57600080fd5b506100e0600480360381019080803573ffffffffffffffffffffffffffffffffffffffff16906020019092919050505061019a565b604051808215151515815260200191505060405180910390f35b34801561010657600080fd5b5061010f6101b7565b005b61011a3361019a565b151561018e576040517f08c379a000000000000000000000000000000000000000000000000000000000815260040180806020018281038252601b8152602001807f4f6e6c79206120436f7374756d65722063616e20646f2074686973000000000081525060200191505060405180910390fd5b610197816101c2565b50565b60006101b082600061021c90919063ffffffff16565b9050919050565b6101c0336102b0565b565b6101d681600061030a90919063ffffffff16565b8073ffffffffffffffffffffffffffffffffffffffff167f37f2bb8f4596c61172526eb12f70fe6a1a9653a0b5fedbe1031b7a2bf71a27eb60405160405180910390a250565b60008073ffffffffffffffffffffffffffffffffffffffff168273ffffffffffffffffffffffffffffffffffffffff161415151561025957600080fd5b8260000160008373ffffffffffffffffffffffffffffffffffffffff1673ffffffffffffffffffffffffffffffffffffffff16815260200190815260200160002060009054906101000a900460ff16905092915050565b6102c48160006103ba90919063ffffffff16565b8073ffffffffffffffffffffffffffffffffffffffff167f7c5ae0e07939db69fda08596f8822b6c8b745657804957ef938a645cff7fb5f360405160405180910390a250565b600073ffffffffffffffffffffffffffffffffffffffff168173ffffffffffffffffffffffffffffffffffffffff161415151561034657600080fd5b610350828261021c565b15151561035c57600080fd5b60018260000160008373ffffffffffffffffffffffffffffffffffffffff1673ffffffffffffffffffffffffffffffffffffffff16815260200190815260200160002060006101000a81548160ff0219169083151502179055505050565b600073ffffffffffffffffffffffffffffffffffffffff168173ffffffffffffffffffffffffffffffffffffffff16141515156103f657600080fd5b610400828261021c565b151561040b57600080fd5b60008260000160008373ffffffffffffffffffffffffffffffffffffffff1673ffffffffffffffffffffffffffffffffffffffff16815260200190815260200160002060006101000a81548160ff02191690831515021790555050505600a165627a7a723058208336ae0906aa76048ae20b93d5a4dcf7054fa3bc53d9c0b4fa747f5745b189e00029",
  "source": "pragma solidity ^0.4.24;\n\n// Import the library 'Roles'\nimport \"./Roles.sol\";\n\n// Define a contract 'CostumerRole' to manage this role - add, remove, check\ncontract CostumerRole {\n    using Roles for Roles.Role;\n\n    event CostumerAdded(address indexed account);\n    event CostumerRemoved(address indexed account);\n\n    Roles.Role private costumers;\n\n    constructor() public {\n      _addCostumer(msg.sender);\n    }\n\n    modifier onlyCostumer() {\n      require(\n        isCostumer(msg.sender), 'Only a Costumer can do this');\n      _;\n    }\n\n    function isCostumer(address account) public view returns (bool) {\n      return costumers.has(account);\n    }\n\n    function addCostumer(address account) public onlyCostumer {\n      _addCostumer(account);\n    }\n\n    function renounceCostumer() public {\n      _removeCostumer(msg.sender);\n    }\n\n    function _addCostumer(address account) internal {\n      costumers.add(account);\n      emit CostumerAdded(account);\n    }\n\n    function _removeCostumer(address account) internal {\n      costumers.remove(account);\n      emit CostumerRemoved(account);\n    }\n}\n",
  "sourcePath": "/Users/stefanzils/Documents/GitHub/organicOilSupply/impl/contracts/access_control/CostumerRole.sol",
  "compiler": {
    "name": "solc",
    "version": "0.4.24+commit.e67f0147.Emscripten.clang"
  },
  "schemaVersion": "3.0.14",
  "updatedAt": "2019-09-25T21:07:30.367Z",
  "devdoc": {
    "methods": {}
  },
  "userdoc": {
    "methods": {}
  }
}