{
  "contractName": "MillRole",
  "abi": [
    {
      "inputs": [],
      "payable": false,
      "stateMutability": "nonpayable",
      "type": "constructor"
    },
    {
      "anonymous": false,
      "inputs": [
        {
          "indexed": true,
          "name": "account",
          "type": "address"
        }
      ],
      "name": "MillAdded",
      "type": "event"
    },
    {
      "anonymous": false,
      "inputs": [
        {
          "indexed": true,
          "name": "account",
          "type": "address"
        }
      ],
      "name": "MillRemoved",
      "type": "event"
    },
    {
      "constant": true,
      "inputs": [
        {
          "name": "account",
          "type": "address"
        }
      ],
      "name": "isMill",
      "outputs": [
        {
          "name": "",
          "type": "bool"
        }
      ],
      "payable": false,
      "stateMutability": "view",
      "type": "function"
    },
    {
      "constant": false,
      "inputs": [
        {
          "name": "account",
          "type": "address"
        }
      ],
      "name": "addMill",
      "outputs": [],
      "payable": false,
      "stateMutability": "nonpayable",
      "type": "function"
    },
    {
      "constant": false,
      "inputs": [],
      "name": "renounceMill",
      "outputs": [],
      "payable": false,
      "stateMutability": "nonpayable",
      "type": "function"
    }
  ],
  "bytecode": "0x608060405234801561001057600080fd5b506100293361002e640100000000026401000000009004565b6101e7565b61004f816000610094640100000000026102a0179091906401000000009004565b8073ffffffffffffffffffffffffffffffffffffffff167ea0477dded24b6f3ca0efb56770e84d7af0117bde8073e93a34e2f0b67f629260405160405180910390a250565b600073ffffffffffffffffffffffffffffffffffffffff168173ffffffffffffffffffffffffffffffffffffffff16141515156100d057600080fd5b6100e98282610153640100000000026401000000009004565b1515156100f557600080fd5b60018260000160008373ffffffffffffffffffffffffffffffffffffffff1673ffffffffffffffffffffffffffffffffffffffff16815260200190815260200160002060006101000a81548160ff0219169083151502179055505050565b60008073ffffffffffffffffffffffffffffffffffffffff168273ffffffffffffffffffffffffffffffffffffffff161415151561019057600080fd5b8260000160008373ffffffffffffffffffffffffffffffffffffffff1673ffffffffffffffffffffffffffffffffffffffff16815260200190815260200160002060009054906101000a900460ff16905092915050565b61042b806101f66000396000f300608060405260043610610057576000357c0100000000000000000000000000000000000000000000000000000000900463ffffffff168063150e34651461005c57806318b50d07146100b7578063e77f6d05146100fa575b600080fd5b34801561006857600080fd5b5061009d600480360381019080803573ffffffffffffffffffffffffffffffffffffffff169060200190929190505050610111565b604051808215151515815260200191505060405180910390f35b3480156100c357600080fd5b506100f8600480360381019080803573ffffffffffffffffffffffffffffffffffffffff16906020019092919050505061012e565b005b34801561010657600080fd5b5061010f61014e565b005b600061012782600061015990919063ffffffff16565b9050919050565b61013733610111565b151561014257600080fd5b61014b816101ed565b50565b61015733610246565b565b60008073ffffffffffffffffffffffffffffffffffffffff168273ffffffffffffffffffffffffffffffffffffffff161415151561019657600080fd5b8260000160008373ffffffffffffffffffffffffffffffffffffffff1673ffffffffffffffffffffffffffffffffffffffff16815260200190815260200160002060009054906101000a900460ff16905092915050565b6102018160006102a090919063ffffffff16565b8073ffffffffffffffffffffffffffffffffffffffff167ea0477dded24b6f3ca0efb56770e84d7af0117bde8073e93a34e2f0b67f629260405160405180910390a250565b61025a81600061035090919063ffffffff16565b8073ffffffffffffffffffffffffffffffffffffffff167f83d8cce936a4bacce731675cb6d6de235957309cc48eb6a36aa7ae1811eb9fab60405160405180910390a250565b600073ffffffffffffffffffffffffffffffffffffffff168173ffffffffffffffffffffffffffffffffffffffff16141515156102dc57600080fd5b6102e68282610159565b1515156102f257600080fd5b60018260000160008373ffffffffffffffffffffffffffffffffffffffff1673ffffffffffffffffffffffffffffffffffffffff16815260200190815260200160002060006101000a81548160ff0219169083151502179055505050565b600073ffffffffffffffffffffffffffffffffffffffff168173ffffffffffffffffffffffffffffffffffffffff161415151561038c57600080fd5b6103968282610159565b15156103a157600080fd5b60008260000160008373ffffffffffffffffffffffffffffffffffffffff1673ffffffffffffffffffffffffffffffffffffffff16815260200190815260200160002060006101000a81548160ff02191690831515021790555050505600a165627a7a72305820300c446ca20ef7e700ac1d27a744d6a445f04a4ab1569136c0fc6659b816b36e0029",
  "source": "pragma solidity ^0.4.24;\n\n// Import the library 'Roles'\nimport \"./Roles.sol\";\n\n// Define a contract 'MillRole' to manage this role - add, remove, check\ncontract MillRole {\n\n  using Roles for Roles.Role;\n\n  // Define 2 events, one for Adding, and other for Removing\n  event MillAdded(address indexed account);\n  event MillRemoved(address indexed account);\n\n  // Define a struct 'farmers' by inheriting from 'Roles' library, struct Role\n  Roles.Role private mills;\n\n  // In the constructor make the address that deploys this contract the 1st farmer\n  constructor() public {\n    _addMill(msg.sender);\n  }\n\n  // Define a modifier that checks to see if msg.sender has the appropriate role\n  modifier onlyMill() {\n    require(isMill(msg.sender));\n    _;\n  }\n\n  // Define a function 'isMill' to check this role\n  function isMill(address account) public view returns (bool) {\n    return mills.has(account);\n  }\n\n  // Define a function 'addMill' that adds this role\n  function addMill(address account) public onlyMill {\n    _addMill(account);\n  }\n\n  // Define a function 'renounceMill' to renounce this role\n  function renounceMill() public {\n    _removeMill(msg.sender);\n  }\n\n  // Define an internal function '_addFarmer' to add this role, called by 'addFarmer'\n  function _addMill(address account) internal {\n    mills.add(account);\n    emit MillAdded(account);\n  }\n\n  // Define an internal function '_removeFarmer' to remove this role, called by 'removeFarmer'\n  function _removeMill(address account) internal {\n    mills.remove(account);\n    emit MillRemoved(account);\n  }\n}\n",
  "sourcePath": "/Users/stefanzils/Documents/GitHub/organicOilSupply/impl/contracts/access_control/MillRole.sol",
  "compiler": {
    "name": "solc",
    "version": "0.4.24+commit.e67f0147.Emscripten.clang"
  },
  "schemaVersion": "3.0.14",
  "updatedAt": "2019-09-25T21:07:30.369Z",
  "devdoc": {
    "methods": {}
  },
  "userdoc": {
    "methods": {}
  }
}