{
  "contractName": "ShopRole",
  "abi": [
    {
      "inputs": [],
      "payable": false,
      "stateMutability": "nonpayable",
      "type": "constructor"
    },
    {
      "anonymous": false,
      "inputs": [
        {
          "indexed": true,
          "name": "account",
          "type": "address"
        }
      ],
      "name": "ShopAdded",
      "type": "event"
    },
    {
      "anonymous": false,
      "inputs": [
        {
          "indexed": true,
          "name": "account",
          "type": "address"
        }
      ],
      "name": "ShopRemoved",
      "type": "event"
    },
    {
      "constant": true,
      "inputs": [
        {
          "name": "account",
          "type": "address"
        }
      ],
      "name": "isShop",
      "outputs": [
        {
          "name": "",
          "type": "bool"
        }
      ],
      "payable": false,
      "stateMutability": "view",
      "type": "function"
    },
    {
      "constant": false,
      "inputs": [
        {
          "name": "account",
          "type": "address"
        }
      ],
      "name": "addShop",
      "outputs": [],
      "payable": false,
      "stateMutability": "nonpayable",
      "type": "function"
    },
    {
      "constant": false,
      "inputs": [],
      "name": "renounceShop",
      "outputs": [],
      "payable": false,
      "stateMutability": "nonpayable",
      "type": "function"
    }
  ],
  "bytecode": "0x608060405234801561001057600080fd5b506100293361002e640100000000026401000000009004565b6101e8565b61004f81600061009564010000000002610350179091906401000000009004565b8073ffffffffffffffffffffffffffffffffffffffff167f121731828b85b443d173e8dc86615a38927a5b1035349922533c0b02faa1103d60405160405180910390a250565b600073ffffffffffffffffffffffffffffffffffffffff168173ffffffffffffffffffffffffffffffffffffffff16141515156100d157600080fd5b6100ea8282610154640100000000026401000000009004565b1515156100f657600080fd5b60018260000160008373ffffffffffffffffffffffffffffffffffffffff1673ffffffffffffffffffffffffffffffffffffffff16815260200190815260200160002060006101000a81548160ff0219169083151502179055505050565b60008073ffffffffffffffffffffffffffffffffffffffff168273ffffffffffffffffffffffffffffffffffffffff161415151561019157600080fd5b8260000160008373ffffffffffffffffffffffffffffffffffffffff1673ffffffffffffffffffffffffffffffffffffffff16815260200190815260200160002060009054906101000a900460ff16905092915050565b61042c806101f76000396000f300608060405260043610610057576000357c0100000000000000000000000000000000000000000000000000000000900463ffffffff1680631d0e8a4d1461005c57806343e5c830146100b757806378fbb04f146100ce575b600080fd5b34801561006857600080fd5b5061009d600480360381019080803573ffffffffffffffffffffffffffffffffffffffff169060200190929190505050610111565b604051808215151515815260200191505060405180910390f35b3480156100c357600080fd5b506100cc61012e565b005b3480156100da57600080fd5b5061010f600480360381019080803573ffffffffffffffffffffffffffffffffffffffff169060200190929190505050610139565b005b600061012782600061015990919063ffffffff16565b9050919050565b610137336101ed565b565b61014233610111565b151561014d57600080fd5b61015681610247565b50565b60008073ffffffffffffffffffffffffffffffffffffffff168273ffffffffffffffffffffffffffffffffffffffff161415151561019657600080fd5b8260000160008373ffffffffffffffffffffffffffffffffffffffff1673ffffffffffffffffffffffffffffffffffffffff16815260200190815260200160002060009054906101000a900460ff16905092915050565b6102018160006102a190919063ffffffff16565b8073ffffffffffffffffffffffffffffffffffffffff167fd50d62b726467f70db12c0823c62ab5a8a5e5075539f68fdfa111b2e77f203e960405160405180910390a250565b61025b81600061035090919063ffffffff16565b8073ffffffffffffffffffffffffffffffffffffffff167f121731828b85b443d173e8dc86615a38927a5b1035349922533c0b02faa1103d60405160405180910390a250565b600073ffffffffffffffffffffffffffffffffffffffff168173ffffffffffffffffffffffffffffffffffffffff16141515156102dd57600080fd5b6102e78282610159565b15156102f257600080fd5b60008260000160008373ffffffffffffffffffffffffffffffffffffffff1673ffffffffffffffffffffffffffffffffffffffff16815260200190815260200160002060006101000a81548160ff0219169083151502179055505050565b600073ffffffffffffffffffffffffffffffffffffffff168173ffffffffffffffffffffffffffffffffffffffff161415151561038c57600080fd5b6103968282610159565b1515156103a257600080fd5b60018260000160008373ffffffffffffffffffffffffffffffffffffffff1673ffffffffffffffffffffffffffffffffffffffff16815260200190815260200160002060006101000a81548160ff02191690831515021790555050505600a165627a7a723058205812d0d46d135612396e2161e0b9d77d29e5a5d30b67a9ebee0096a8cdc454d60029",
  "source": "pragma solidity ^0.4.24;\n\n// Import the library 'Roles'\nimport \"./Roles.sol\";\n\n// Define a contract 'RetailerRole' to manage this role - add, remove, check\ncontract ShopRole {\n\n  using Roles for Roles.Role;\n\n  // Define 2 events, one for Adding, and other for Removing\n  event ShopAdded(address indexed account);\n  event ShopRemoved(address indexed account);\n\n  // Define a struct 'shop' by inheriting from 'Roles' library, struct Role\n  Roles.Role private shops;\n\n  // In the constructor make the address that deploys this contract the 1st farmer\n  constructor() public {\n    _addShop(msg.sender);\n  }\n\n  // Define a modifier that checks to see if msg.sender has the appropriate role\n  modifier onlyShop() {\n    require(isShop(msg.sender));\n    _;\n  }\n\n  // Define a function 'isShop' to check this role\n  function isShop(address account) public view returns (bool) {\n    return shops.has(account);\n  }\n\n  // Define a function 'addShop' that adds this role\n  function addShop(address account) public onlyShop {\n    _addShop(account);\n  }\n\n  // Define a function 'renounceShop' to renounce this role\n  function renounceShop() public {\n    _removeShop(msg.sender);\n  }\n\n  // Define an internal function '_addShop' to add this role, called by 'addFarmer'\n  function _addShop(address account) internal {\n    shops.add(account);\n    emit ShopAdded(account);\n  }\n\n  // Define an internal function '_removeFarmer' to remove this role, called by 'removeFarmer'\n  function _removeShop(address account) internal {\n    shops.remove(account);\n    emit ShopRemoved(account);\n  }\n}\n",
  "sourcePath": "/Users/stefanzils/Documents/GitHub/organicOilSupply/impl/contracts/access_control/ShopRole.sol",
  "compiler": {
    "name": "solc",
    "version": "0.4.24+commit.e67f0147.Emscripten.clang"
  },
  "schemaVersion": "3.0.14",
  "updatedAt": "2019-09-25T21:07:30.371Z",
  "devdoc": {
    "methods": {}
  },
  "userdoc": {
    "methods": {}
  }
}