{
  "contractName": "SupplyChain",
  "abi": [
    {
      "constant": true,
      "inputs": [
        {
          "name": "account",
          "type": "address"
        }
      ],
      "name": "isMill",
      "outputs": [
        {
          "name": "",
          "type": "bool"
        }
      ],
      "payable": false,
      "stateMutability": "view",
      "type": "function"
    },
    {
      "constant": false,
      "inputs": [
        {
          "name": "account",
          "type": "address"
        }
      ],
      "name": "addMill",
      "outputs": [],
      "payable": false,
      "stateMutability": "nonpayable",
      "type": "function"
    },
    {
      "constant": true,
      "inputs": [
        {
          "name": "account",
          "type": "address"
        }
      ],
      "name": "isShop",
      "outputs": [
        {
          "name": "",
          "type": "bool"
        }
      ],
      "payable": false,
      "stateMutability": "view",
      "type": "function"
    },
    {
      "constant": false,
      "inputs": [],
      "name": "renounceShop",
      "outputs": [],
      "payable": false,
      "stateMutability": "nonpayable",
      "type": "function"
    },
    {
      "constant": false,
      "inputs": [
        {
          "name": "account",
          "type": "address"
        }
      ],
      "name": "addCostumer",
      "outputs": [],
      "payable": false,
      "stateMutability": "nonpayable",
      "type": "function"
    },
    {
      "constant": false,
      "inputs": [],
      "name": "renounceOwnership",
      "outputs": [],
      "payable": false,
      "stateMutability": "nonpayable",
      "type": "function"
    },
    {
      "constant": false,
      "inputs": [
        {
          "name": "account",
          "type": "address"
        }
      ],
      "name": "addShop",
      "outputs": [],
      "payable": false,
      "stateMutability": "nonpayable",
      "type": "function"
    },
    {
      "constant": false,
      "inputs": [
        {
          "name": "account",
          "type": "address"
        }
      ],
      "name": "addFarmer",
      "outputs": [],
      "payable": false,
      "stateMutability": "nonpayable",
      "type": "function"
    },
    {
      "constant": false,
      "inputs": [],
      "name": "renounceFarmer",
      "outputs": [],
      "payable": false,
      "stateMutability": "nonpayable",
      "type": "function"
    },
    {
      "constant": true,
      "inputs": [],
      "name": "owner",
      "outputs": [
        {
          "name": "",
          "type": "address"
        }
      ],
      "payable": false,
      "stateMutability": "view",
      "type": "function"
    },
    {
      "constant": true,
      "inputs": [],
      "name": "isOwner",
      "outputs": [
        {
          "name": "",
          "type": "bool"
        }
      ],
      "payable": false,
      "stateMutability": "view",
      "type": "function"
    },
    {
      "constant": true,
      "inputs": [
        {
          "name": "account",
          "type": "address"
        }
      ],
      "name": "isCostumer",
      "outputs": [
        {
          "name": "",
          "type": "bool"
        }
      ],
      "payable": false,
      "stateMutability": "view",
      "type": "function"
    },
    {
      "constant": true,
      "inputs": [
        {
          "name": "account",
          "type": "address"
        }
      ],
      "name": "isFarmer",
      "outputs": [
        {
          "name": "",
          "type": "bool"
        }
      ],
      "payable": false,
      "stateMutability": "view",
      "type": "function"
    },
    {
      "constant": false,
      "inputs": [],
      "name": "renounceCostumer",
      "outputs": [],
      "payable": false,
      "stateMutability": "nonpayable",
      "type": "function"
    },
    {
      "constant": false,
      "inputs": [],
      "name": "renounceMill",
      "outputs": [],
      "payable": false,
      "stateMutability": "nonpayable",
      "type": "function"
    },
    {
      "constant": false,
      "inputs": [
        {
          "name": "newOwner",
          "type": "address"
        }
      ],
      "name": "transferOwnership",
      "outputs": [],
      "payable": false,
      "stateMutability": "nonpayable",
      "type": "function"
    },
    {
      "inputs": [],
      "payable": true,
      "stateMutability": "payable",
      "type": "constructor"
    },
    {
      "anonymous": false,
      "inputs": [
        {
          "indexed": false,
          "name": "productionID",
          "type": "uint256"
        }
      ],
      "name": "Harvested",
      "type": "event"
    },
    {
      "anonymous": false,
      "inputs": [
        {
          "indexed": false,
          "name": "productionID",
          "type": "uint256"
        }
      ],
      "name": "Pressed",
      "type": "event"
    },
    {
      "anonymous": false,
      "inputs": [
        {
          "indexed": false,
          "name": "productionID",
          "type": "uint256"
        }
      ],
      "name": "Bottled",
      "type": "event"
    },
    {
      "anonymous": false,
      "inputs": [
        {
          "indexed": false,
          "name": "productionID",
          "type": "uint256"
        }
      ],
      "name": "Delivered",
      "type": "event"
    },
    {
      "anonymous": false,
      "inputs": [
        {
          "indexed": false,
          "name": "upc",
          "type": "uint256"
        }
      ],
      "name": "InShop",
      "type": "event"
    },
    {
      "anonymous": false,
      "inputs": [
        {
          "indexed": false,
          "name": "upc",
          "type": "uint256"
        }
      ],
      "name": "Sold",
      "type": "event"
    },
    {
      "anonymous": false,
      "inputs": [
        {
          "indexed": true,
          "name": "account",
          "type": "address"
        }
      ],
      "name": "CostumerAdded",
      "type": "event"
    },
    {
      "anonymous": false,
      "inputs": [
        {
          "indexed": true,
          "name": "account",
          "type": "address"
        }
      ],
      "name": "CostumerRemoved",
      "type": "event"
    },
    {
      "anonymous": false,
      "inputs": [
        {
          "indexed": true,
          "name": "account",
          "type": "address"
        }
      ],
      "name": "ShopAdded",
      "type": "event"
    },
    {
      "anonymous": false,
      "inputs": [
        {
          "indexed": true,
          "name": "account",
          "type": "address"
        }
      ],
      "name": "ShopRemoved",
      "type": "event"
    },
    {
      "anonymous": false,
      "inputs": [
        {
          "indexed": true,
          "name": "account",
          "type": "address"
        }
      ],
      "name": "MillAdded",
      "type": "event"
    },
    {
      "anonymous": false,
      "inputs": [
        {
          "indexed": true,
          "name": "account",
          "type": "address"
        }
      ],
      "name": "MillRemoved",
      "type": "event"
    },
    {
      "anonymous": false,
      "inputs": [
        {
          "indexed": true,
          "name": "account",
          "type": "address"
        }
      ],
      "name": "FarmerAdded",
      "type": "event"
    },
    {
      "anonymous": false,
      "inputs": [
        {
          "indexed": true,
          "name": "account",
          "type": "address"
        }
      ],
      "name": "FarmerRemoved",
      "type": "event"
    },
    {
      "anonymous": false,
      "inputs": [
        {
          "indexed": true,
          "name": "oldOwner",
          "type": "address"
        },
        {
          "indexed": true,
          "name": "newOwner",
          "type": "address"
        }
      ],
      "name": "TransferOwnership",
      "type": "event"
    },
    {
      "constant": false,
      "inputs": [],
      "name": "kill",
      "outputs": [],
      "payable": false,
      "stateMutability": "nonpayable",
      "type": "function"
    },
    {
      "constant": false,
      "inputs": [
        {
          "name": "_productionID",
          "type": "uint256"
        },
        {
          "name": "_farmerID",
          "type": "address"
        },
        {
          "name": "_farmerName",
          "type": "string"
        },
        {
          "name": "_harvestDate",
          "type": "uint256"
        },
        {
          "name": "_fieldName",
          "type": "string"
        },
        {
          "name": "_latitude",
          "type": "string"
        },
        {
          "name": "_longitude",
          "type": "string"
        }
      ],
      "name": "harvest",
      "outputs": [],
      "payable": false,
      "stateMutability": "nonpayable",
      "type": "function"
    },
    {
      "constant": false,
      "inputs": [
        {
          "name": "_productionID",
          "type": "uint256"
        },
        {
          "name": "_millID",
          "type": "address"
        },
        {
          "name": "_millName",
          "type": "string"
        },
        {
          "name": "_amountLiters",
          "type": "uint256"
        },
        {
          "name": "_pressDate",
          "type": "uint256"
        }
      ],
      "name": "press",
      "outputs": [],
      "payable": false,
      "stateMutability": "nonpayable",
      "type": "function"
    },
    {
      "constant": false,
      "inputs": [
        {
          "name": "_productionID",
          "type": "uint256"
        },
        {
          "name": "_bottlingDate",
          "type": "uint256"
        }
      ],
      "name": "bottling",
      "outputs": [],
      "payable": false,
      "stateMutability": "nonpayable",
      "type": "function"
    },
    {
      "constant": false,
      "inputs": [
        {
          "name": "_productionID",
          "type": "uint256"
        },
        {
          "name": "_shopID",
          "type": "address"
        },
        {
          "name": "_deliveryDate",
          "type": "uint256"
        }
      ],
      "name": "deliver",
      "outputs": [],
      "payable": false,
      "stateMutability": "nonpayable",
      "type": "function"
    },
    {
      "constant": false,
      "inputs": [
        {
          "name": "_productionID",
          "type": "uint256"
        },
        {
          "name": "_inShopDate",
          "type": "uint256"
        },
        {
          "name": "_price",
          "type": "uint256"
        }
      ],
      "name": "getDelivery",
      "outputs": [],
      "payable": false,
      "stateMutability": "nonpayable",
      "type": "function"
    },
    {
      "constant": false,
      "inputs": [
        {
          "name": "_upc",
          "type": "uint256"
        }
      ],
      "name": "sellBottle",
      "outputs": [],
      "payable": true,
      "stateMutability": "payable",
      "type": "function"
    },
    {
      "constant": true,
      "inputs": [
        {
          "name": "_productionID",
          "type": "uint256"
        }
      ],
      "name": "fetchOilProductionFarm",
      "outputs": [
        {
          "name": "",
          "type": "address"
        },
        {
          "name": "",
          "type": "address"
        },
        {
          "name": "",
          "type": "string"
        },
        {
          "name": "",
          "type": "uint256"
        },
        {
          "name": "",
          "type": "string"
        },
        {
          "name": "",
          "type": "string"
        },
        {
          "name": "",
          "type": "string"
        },
        {
          "name": "",
          "type": "uint8"
        }
      ],
      "payable": false,
      "stateMutability": "view",
      "type": "function"
    },
    {
      "constant": true,
      "inputs": [
        {
          "name": "_productionID",
          "type": "uint256"
        }
      ],
      "name": "fetchOilProduction",
      "outputs": [
        {
          "name": "",
          "type": "address"
        },
        {
          "name": "",
          "type": "address"
        },
        {
          "name": "",
          "type": "address"
        },
        {
          "name": "",
          "type": "string"
        },
        {
          "name": "",
          "type": "uint256"
        },
        {
          "name": "",
          "type": "uint256"
        },
        {
          "name": "",
          "type": "uint256"
        },
        {
          "name": "",
          "type": "uint256"
        },
        {
          "name": "",
          "type": "uint256"
        },
        {
          "name": "",
          "type": "uint256"
        },
        {
          "name": "",
          "type": "uint8"
        }
      ],
      "payable": false,
      "stateMutability": "view",
      "type": "function"
    },
    {
      "constant": true,
      "inputs": [
        {
          "name": "_upc",
          "type": "uint256"
        }
      ],
      "name": "fetchBottle",
      "outputs": [
        {
          "name": "",
          "type": "uint256"
        },
        {
          "name": "",
          "type": "uint256"
        },
        {
          "name": "",
          "type": "address"
        },
        {
          "name": "",
          "type": "address"
        },
        {
          "name": "",
          "type": "address"
        },
        {
          "name": "",
          "type": "address"
        },
        {
          "name": "",
          "type": "uint256"
        },
        {
          "name": "",
          "type": "uint256"
        },
        {
          "name": "",
          "type": "uint256"
        },
        {
          "name": "",
          "type": "uint256"
        },
        {
          "name": "",
          "type": "uint256"
        },
        {
          "name": "",
          "type": "uint8"
        }
      ],
      "payable": false,
      "stateMutability": "view",
      "type": "function"
    }
  ],
  "bytecode": "0x6080604052336000806101000a81548173ffffffffffffffffffffffffffffffffffffffff021916908373ffffffffffffffffffffffffffffffffffffffff1602179055506000809054906101000a900473ffffffffffffffffffffffffffffffffffffffff1673ffffffffffffffffffffffffffffffffffffffff16600073ffffffffffffffffffffffffffffffffffffffff167f5c486528ec3e3f0ea91181cff8116f02bfa350e03b8b6f12e00765adbb5af85c60405160405180910390a3620000d1336200011a60201b60201c565b620000e2336200017b60201b60201c565b620000f333620001db60201b60201c565b62000104336200023c60201b60201c565b60016005819055506001600781905550620003e6565b620001358160016200029d60201b620031821790919060201c565b8073ffffffffffffffffffffffffffffffffffffffff167f2e0ded4123377a3c2bc9a26f1717655a129e2f20752924d42e730ec89c83dbd060405160405180910390a250565b620001968160026200029d60201b620031821790919060201c565b8073ffffffffffffffffffffffffffffffffffffffff167ea0477dded24b6f3ca0efb56770e84d7af0117bde8073e93a34e2f0b67f629260405160405180910390a250565b620001f68160036200029d60201b620031821790919060201c565b8073ffffffffffffffffffffffffffffffffffffffff167f121731828b85b443d173e8dc86615a38927a5b1035349922533c0b02faa1103d60405160405180910390a250565b620002578160046200029d60201b620031821790919060201c565b8073ffffffffffffffffffffffffffffffffffffffff167f37f2bb8f4596c61172526eb12f70fe6a1a9653a0b5fedbe1031b7a2bf71a27eb60405160405180910390a250565b600073ffffffffffffffffffffffffffffffffffffffff168173ffffffffffffffffffffffffffffffffffffffff161415620002d857600080fd5b620002ea82826200035360201b60201c565b15620002f557600080fd5b60018260000160008373ffffffffffffffffffffffffffffffffffffffff1673ffffffffffffffffffffffffffffffffffffffff16815260200190815260200160002060006101000a81548160ff0219169083151502179055505050565b60008073ffffffffffffffffffffffffffffffffffffffff168273ffffffffffffffffffffffffffffffffffffffff1614156200038f57600080fd5b8260000160008373ffffffffffffffffffffffffffffffffffffffff1673ffffffffffffffffffffffffffffffffffffffff16815260200190815260200160002060009054906101000a900460ff16905092915050565b6135ea80620003f66000396000f3fe6080604052600436106101815760003560e01c8063715018a6116100d15780639e6edefc1161008a578063e4fe915911610064578063e4fe915914610e98578063e7680d2514610eaf578063e77f6d0514610fb5578063f2fde38b14610fcc57610181565b80639e6edefc14610d81578063b942906914610dea578063dbf00fa914610e5357610181565b8063715018a614610c2b57806378fbb04f14610c4257806380c3f96d14610c9357806380fc0ce414610ce45780638da5cb5b14610cfb5780638f32d59b14610d5257610181565b8063300239341161013e578063520deedf11610118578063520deedf1461088657806356c8bd92146108eb57806357c1f5d81461093c57806360ee90f21461096a57610181565b8063300239341461080957806341c0e1b51461085857806343e5c8301461086f57610181565b80630584921614610186578063150e3465146102e057806318b50d07146103495780631927ae211461039a5780631c29642e146105265780631d0e8a4d146107a0575b600080fd5b34801561019257600080fd5b506101bf600480360360208110156101a957600080fd5b810190808035906020019092919050505061101d565b604051808d81526020018c81526020018b73ffffffffffffffffffffffffffffffffffffffff1673ffffffffffffffffffffffffffffffffffffffff1681526020018a73ffffffffffffffffffffffffffffffffffffffff1673ffffffffffffffffffffffffffffffffffffffff1681526020018973ffffffffffffffffffffffffffffffffffffffff1673ffffffffffffffffffffffffffffffffffffffff1681526020018873ffffffffffffffffffffffffffffffffffffffff1673ffffffffffffffffffffffffffffffffffffffff1681526020018781526020018681526020018581526020018481526020018381526020018260058111156102c157fe5b60ff1681526020019c5050505050505050505050505060405180910390f35b3480156102ec57600080fd5b5061032f6004803603602081101561030357600080fd5b81019080803573ffffffffffffffffffffffffffffffffffffffff169060200190929190505050611296565b604051808215151515815260200191505060405180910390f35b34801561035557600080fd5b506103986004803603602081101561036c57600080fd5b81019080803573ffffffffffffffffffffffffffffffffffffffff1690602001909291905050506112b3565b005b3480156103a657600080fd5b506103d3600480360360208110156103bd57600080fd5b81019080803590602001909291905050506112d1565b604051808c73ffffffffffffffffffffffffffffffffffffffff1673ffffffffffffffffffffffffffffffffffffffff1681526020018b73ffffffffffffffffffffffffffffffffffffffff1673ffffffffffffffffffffffffffffffffffffffff1681526020018a73ffffffffffffffffffffffffffffffffffffffff1673ffffffffffffffffffffffffffffffffffffffff168152602001806020018981526020018881526020018781526020018681526020018581526020018481526020018360058111156104a157fe5b60ff16815260200182810382528a818151815260200191508051906020019080838360005b838110156104e15780820151818401526020810190506104c6565b50505050905090810190601f16801561050e5780820380516001836020036101000a031916815260200191505b509c5050505050505050505050505060405180910390f35b34801561053257600080fd5b5061055f6004803603602081101561054957600080fd5b810190808035906020019092919050505061145e565b604051808973ffffffffffffffffffffffffffffffffffffffff1673ffffffffffffffffffffffffffffffffffffffff1681526020018873ffffffffffffffffffffffffffffffffffffffff1673ffffffffffffffffffffffffffffffffffffffff168152602001806020018781526020018060200180602001806020018660058111156105e957fe5b60ff16815260200185810385528b818151815260200191508051906020019080838360005b8381101561062957808201518184015260208101905061060e565b50505050905090810190601f1680156106565780820380516001836020036101000a031916815260200191505b50858103845289818151815260200191508051906020019080838360005b8381101561068f578082015181840152602081019050610674565b50505050905090810190601f1680156106bc5780820380516001836020036101000a031916815260200191505b50858103835288818151815260200191508051906020019080838360005b838110156106f55780820151818401526020810190506106da565b50505050905090810190601f1680156107225780820380516001836020036101000a031916815260200191505b50858103825287818151815260200191508051906020019080838360005b8381101561075b578082015181840152602081019050610740565b50505050905090810190601f1680156107885780820380516001836020036101000a031916815260200191505b509c5050505050505050505050505060405180910390f35b3480156107ac57600080fd5b506107ef600480360360208110156107c357600080fd5b81019080803573ffffffffffffffffffffffffffffffffffffffff16906020019092919050505061177f565b604051808215151515815260200191505060405180910390f35b34801561081557600080fd5b506108566004803603606081101561082c57600080fd5b8101908080359060200190929190803590602001909291908035906020019092919050505061179c565b005b34801561086457600080fd5b5061086d611962565b005b34801561087b57600080fd5b5061088461198a565b005b34801561089257600080fd5b506108e9600480360360608110156108a957600080fd5b8101908080359060200190929190803573ffffffffffffffffffffffffffffffffffffffff16906020019092919080359060200190929190505050611995565b005b3480156108f757600080fd5b5061093a6004803603602081101561090e57600080fd5b81019080803573ffffffffffffffffffffffffffffffffffffffff169060200190929190505050611c5e565b005b6109686004803603602081101561095257600080fd5b8101908080359060200190929190505050611ce5565b005b34801561097657600080fd5b50610c29600480360360e081101561098d57600080fd5b8101908080359060200190929190803573ffffffffffffffffffffffffffffffffffffffff169060200190929190803590602001906401000000008111156109d457600080fd5b8201836020820111156109e657600080fd5b80359060200191846001830284011164010000000083111715610a0857600080fd5b91908080601f016020809104026020016040519081016040528093929190818152602001838380828437600081840152601f19601f8201169050808301925050505050505091929192908035906020019092919080359060200190640100000000811115610a7557600080fd5b820183602082011115610a8757600080fd5b80359060200191846001830284011164010000000083111715610aa957600080fd5b91908080601f016020809104026020016040519081016040528093929190818152602001838380828437600081840152601f19601f82011690508083019250505050505050919291929080359060200190640100000000811115610b0c57600080fd5b820183602082011115610b1e57600080fd5b80359060200191846001830284011164010000000083111715610b4057600080fd5b91908080601f016020809104026020016040519081016040528093929190818152602001838380828437600081840152601f19601f82011690508083019250505050505050919291929080359060200190640100000000811115610ba357600080fd5b820183602082011115610bb557600080fd5b80359060200191846001830284011164010000000083111715610bd757600080fd5b91908080601f016020809104026020016040519081016040528093929190818152602001838380828437600081840152601f19601f820116905080830192505050505050509192919290505050612083565b005b348015610c3757600080fd5b50610c40612427565b005b348015610c4e57600080fd5b50610c9160048036036020811015610c6557600080fd5b81019080803573ffffffffffffffffffffffffffffffffffffffff169060200190929190505050612560565b005b348015610c9f57600080fd5b50610ce260048036036020811015610cb657600080fd5b81019080803573ffffffffffffffffffffffffffffffffffffffff16906020019092919050505061257e565b005b348015610cf057600080fd5b50610cf961259c565b005b348015610d0757600080fd5b50610d106125a7565b604051808273ffffffffffffffffffffffffffffffffffffffff1673ffffffffffffffffffffffffffffffffffffffff16815260200191505060405180910390f35b348015610d5e57600080fd5b50610d676125d0565b604051808215151515815260200191505060405180910390f35b348015610d8d57600080fd5b50610dd060048036036020811015610da457600080fd5b81019080803573ffffffffffffffffffffffffffffffffffffffff169060200190929190505050612627565b604051808215151515815260200191505060405180910390f35b348015610df657600080fd5b50610e3960048036036020811015610e0d57600080fd5b81019080803573ffffffffffffffffffffffffffffffffffffffff169060200190929190505050612644565b604051808215151515815260200191505060405180910390f35b348015610e5f57600080fd5b50610e9660048036036040811015610e7657600080fd5b810190808035906020019092919080359060200190929190505050612661565b005b348015610ea457600080fd5b50610ead612b02565b005b348015610ebb57600080fd5b50610fb3600480360360a0811015610ed257600080fd5b8101908080359060200190929190803573ffffffffffffffffffffffffffffffffffffffff16906020019092919080359060200190640100000000811115610f1957600080fd5b820183602082011115610f2b57600080fd5b80359060200191846001830284011164010000000083111715610f4d57600080fd5b91908080601f016020809104026020016040519081016040528093929190818152602001838380828437600081840152601f19601f8201169050808301925050505050505091929192908035906020019092919080359060200190929190505050612b0d565b005b348015610fc157600080fd5b50610fca612c98565b005b348015610fd857600080fd5b5061101b60048036036020811015610fef57600080fd5b81019080803573ffffffffffffffffffffffffffffffffffffffff169060200190929190505050612ca3565b005b6000806000806000806000806000806000806110376132d9565b600960008f8152602001908152602001600020604051806101a00160405290816000820154815260200160018201548152602001600282015481526020016003820160009054906101000a900473ffffffffffffffffffffffffffffffffffffffff1673ffffffffffffffffffffffffffffffffffffffff1673ffffffffffffffffffffffffffffffffffffffff1681526020016004820160009054906101000a900473ffffffffffffffffffffffffffffffffffffffff1673ffffffffffffffffffffffffffffffffffffffff1673ffffffffffffffffffffffffffffffffffffffff1681526020016005820160009054906101000a900473ffffffffffffffffffffffffffffffffffffffff1673ffffffffffffffffffffffffffffffffffffffff1673ffffffffffffffffffffffffffffffffffffffff1681526020016006820160009054906101000a900473ffffffffffffffffffffffffffffffffffffffff1673ffffffffffffffffffffffffffffffffffffffff1673ffffffffffffffffffffffffffffffffffffffff168152602001600782015481526020016008820154815260200160098201548152602001600a8201548152602001600b8201548152602001600c820160009054906101000a900460ff16600581111561121c57fe5b600581111561122757fe5b81525050905080600001518160400151826060015183608001518460a001518560c001518660e001518761010001518861012001518961014001518a61016001518b61018001519c509c509c509c509c509c509c509c509c509c509c509c505091939597999b5091939597999b565b60006112ac826002612d2990919063ffffffff16565b9050919050565b6112bc33611296565b6112c557600080fd5b6112ce81612dbb565b50565b60008060006060600080600080600080600080600a60008e815260200190815260200160002090508060010160009054906101000a900473ffffffffffffffffffffffffffffffffffffffff168160030160009054906101000a900473ffffffffffffffffffffffffffffffffffffffff168260040160009054906101000a900473ffffffffffffffffffffffffffffffffffffffff1683600601846008015485600c0154866009015487600a015488600b015489601201548a60100160009054906101000a900460ff16878054600181600116156101000203166002900480601f0160208091040260200160405190810160405280929190818152602001828054600181600116156101000203166002900480156114315780601f1061140657610100808354040283529160200191611431565b820191906000526020600020905b81548152906001019060200180831161141457829003601f168201915b505050505097509b509b509b509b509b509b509b509b509b509b509b505091939597999b90929496989a50565b600080606060006060806060600080600a60008b815260200190815260200160002090508060010160009054906101000a900473ffffffffffffffffffffffffffffffffffffffff168160020160009054906101000a900473ffffffffffffffffffffffffffffffffffffffff1682600501836007015484600d0185600e0186600f018760100160009054906101000a900460ff16858054600181600116156101000203166002900480601f0160208091040260200160405190810160405280929190818152602001828054600181600116156101000203166002900480156115885780601f1061155d57610100808354040283529160200191611588565b820191906000526020600020905b81548152906001019060200180831161156b57829003601f168201915b50505050509550838054600181600116156101000203166002900480601f0160208091040260200160405190810160405280929190818152602001828054600181600116156101000203166002900480156116245780601f106115f957610100808354040283529160200191611624565b820191906000526020600020905b81548152906001019060200180831161160757829003601f168201915b50505050509350828054600181600116156101000203166002900480601f0160208091040260200160405190810160405280929190818152602001828054600181600116156101000203166002900480156116c05780601f10611695576101008083540402835291602001916116c0565b820191906000526020600020905b8154815290600101906020018083116116a357829003601f168201915b50505050509250818054600181600116156101000203166002900480601f01602080910402602001604051908101604052809291908181526020018280546001816001161561010002031660029004801561175c5780601f106117315761010080835404028352916020019161175c565b820191906000526020600020905b81548152906001019060200180831161173f57829003601f168201915b505050505091509850985098509850985098509850985050919395975091939597565b6000611795826003612d2990919063ffffffff16565b9050919050565b6117a53361177f565b6117ae57600080fd5b82600360058111156117bc57fe5b600a600083815260200190815260200160002060100160009054906101000a900460ff1660058111156117eb57fe5b1461185e576040517f08c379a000000000000000000000000000000000000000000000000000000000815260040180806020018281038252600d8152602001807f4e6f742044656c6976657265640000000000000000000000000000000000000081525060200191505060405180910390fd5b6000600a600086815260200190815260200160002090508381600b018190555060048160100160006101000a81548160ff0219169083600581111561189f57fe5b021790555060008090505b816012015481101561191f5760006009600084601301600085815260200190815260200160002054815260200190815260200160002090508481600b0181905550600481600c0160006101000a81548160ff0219169083600581111561190c57fe5b02179055505080806001019150506118aa565b507f2cc0966d70ef0763724446017250e9affaaee6480282b4a02e9a3d39a082a7e381600001546040518082815260200191505060405180910390a15050505050565b61196a6125d0565b15611988573373ffffffffffffffffffffffffffffffffffffffff16ff5b565b61199333612e14565b565b61199e33611296565b6119a757600080fd5b82600260058111156119b557fe5b600a600083815260200190815260200160002060100160009054906101000a900460ff1660058111156119e457fe5b14611a57576040517f08c379a000000000000000000000000000000000000000000000000000000000815260040180806020018281038252600b8152602001807f4e6f7420426f74746c656400000000000000000000000000000000000000000081525060200191505060405180910390fd5b6000600a60008681526020019081526020016000209050838160010160006101000a81548173ffffffffffffffffffffffffffffffffffffffff021916908373ffffffffffffffffffffffffffffffffffffffff160217905550838160040160006101000a81548173ffffffffffffffffffffffffffffffffffffffff021916908373ffffffffffffffffffffffffffffffffffffffff1602179055508281600a018190555060038160100160006101000a81548160ff02191690836005811115611b1e57fe5b021790555060008090505b8160120154811015611c1b576000600960008460130160008581526020019081526020016000205481526020019081526020016000209050858160030160006101000a81548173ffffffffffffffffffffffffffffffffffffffff021916908373ffffffffffffffffffffffffffffffffffffffff160217905550858160050160006101000a81548173ffffffffffffffffffffffffffffffffffffffff021916908373ffffffffffffffffffffffffffffffffffffffff160217905550600381600c0160006101000a81548160ff02191690836005811115611c0857fe5b0217905550508080600101915050611b29565b507ffcc296b8bdd64e3f1d1faadef50cb2d6550f645316330fe57cb1dd7e0612ead081600001546040518082815260200191505060405180910390a15050505050565b611c6733612627565b611cd9576040517f08c379a000000000000000000000000000000000000000000000000000000000815260040180806020018281038252601b8152602001807f4f6e6c79206120436f7374756d65722063616e20646f2074686973000000000081525060200191505060405180910390fd5b611ce281612e6e565b50565b611cee33612627565b611d60576040517f08c379a000000000000000000000000000000000000000000000000000000000815260040180806020018281038252601b8152602001807f4f6e6c79206120436f7374756d65722063616e20646f2074686973000000000081525060200191505060405180910390fd5b8060046005811115611d6e57fe5b60096000838152602001908152602001600020600c0160009054906101000a900460ff166005811115611d9d57fe5b14611e10576040517f08c379a000000000000000000000000000000000000000000000000000000000815260040180806020018281038252600b8152602001807f4e6f7420696e2053686f7000000000000000000000000000000000000000000081525060200191505060405180910390fd5b60096000838152602001908152602001600020600b015480341015611e9d576040517f08c379a000000000000000000000000000000000000000000000000000000000815260040180806020018281038252600f8152602001807f4e6f74205061696420456e6f756768000000000000000000000000000000000081525060200191505060405180910390fd5b826000600960008681526020019081526020016000209050600581600c0160006101000a81548160ff02191690836005811115611ed657fe5b0217905550338160030160006101000a81548173ffffffffffffffffffffffffffffffffffffffff021916908373ffffffffffffffffffffffffffffffffffffffff160217905550338160060160006101000a81548173ffffffffffffffffffffffffffffffffffffffff021916908373ffffffffffffffffffffffffffffffffffffffff16021790555060008160050160009054906101000a900473ffffffffffffffffffffffffffffffffffffffff1690508073ffffffffffffffffffffffffffffffffffffffff166108fc83600b01549081150290604051600060405180830381858888f19350505050158015611fd4573d6000803e3d6000fd5b507f92f64ca637d023f354075a4be751b169c1a8a9ccb6d33cdd0cb352054399572782600101546040518082815260200191505060405180910390a15050600060096000838152602001908152602001600020600b01549050600081340390503373ffffffffffffffffffffffffffffffffffffffff166108fc829081150290604051600060405180830381858888f1935050505015801561207a573d6000803e3d6000fd5b50505050505050565b61208c33612644565b61209557600080fd5b61209d6133a4565b8781600001818152505086816020019073ffffffffffffffffffffffffffffffffffffffff16908173ffffffffffffffffffffffffffffffffffffffff168152505086816040019073ffffffffffffffffffffffffffffffffffffffff16908173ffffffffffffffffffffffffffffffffffffffff1681525050858160a00181905250848160e00181815250506000816102000190600581111561213d57fe5b9081600581111561214a57fe5b8152505083816101a0018190525082816101c0018190525081816101e0018190525080600a6000836000015181526020019081526020016000206000820151816000015560208201518160010160006101000a81548173ffffffffffffffffffffffffffffffffffffffff021916908373ffffffffffffffffffffffffffffffffffffffff16021790555060408201518160020160006101000a81548173ffffffffffffffffffffffffffffffffffffffff021916908373ffffffffffffffffffffffffffffffffffffffff16021790555060608201518160030160006101000a81548173ffffffffffffffffffffffffffffffffffffffff021916908373ffffffffffffffffffffffffffffffffffffffff16021790555060808201518160040160006101000a81548173ffffffffffffffffffffffffffffffffffffffff021916908373ffffffffffffffffffffffffffffffffffffffff16021790555060a08201518160050190805190602001906122c6929190613499565b5060c08201518160060190805190602001906122e3929190613499565b5060e082015181600701556101008201518160080155610120820151816009015561014082015181600a015561016082015181600b015561018082015181600c01556101a082015181600d019080519060200190612342929190613499565b506101c082015181600e019080519060200190612360929190613499565b506101e082015181600f01908051906020019061237e929190613499565b506102008201518160100160006101000a81548160ff021916908360058111156123a457fe5b02179055506102208201518160110190805190602001906123c6929190613499565b50610240820151816012015590505060016007600082825401925050819055507f8e55ccfc9778ff8eba1646d765cf1982537ce0f9257054a17b48aad745250183886040518082815260200191505060405180910390a15050505050505050565b61242f6125d0565b6124a1576040517f08c379a000000000000000000000000000000000000000000000000000000000815260040180806020018281038252600e8152602001807f4e6f7420746865206f776e65722100000000000000000000000000000000000081525060200191505060405180910390fd5b600073ffffffffffffffffffffffffffffffffffffffff166000809054906101000a900473ffffffffffffffffffffffffffffffffffffffff1673ffffffffffffffffffffffffffffffffffffffff167f5c486528ec3e3f0ea91181cff8116f02bfa350e03b8b6f12e00765adbb5af85c60405160405180910390a360008060006101000a81548173ffffffffffffffffffffffffffffffffffffffff021916908373ffffffffffffffffffffffffffffffffffffffff160217905550565b6125693361177f565b61257257600080fd5b61257b81612ec8565b50565b61258733612644565b61259057600080fd5b61259981612f22565b50565b6125a533612f7c565b565b60008060009054906101000a900473ffffffffffffffffffffffffffffffffffffffff16905090565b60008060009054906101000a900473ffffffffffffffffffffffffffffffffffffffff1673ffffffffffffffffffffffffffffffffffffffff163373ffffffffffffffffffffffffffffffffffffffff1614905090565b600061263d826004612d2990919063ffffffff16565b9050919050565b600061265a826001612d2990919063ffffffff16565b9050919050565b61266a33611296565b61267357600080fd5b816001600581111561268157fe5b600a600083815260200190815260200160002060100160009054906101000a900460ff1660058111156126b057fe5b14612723576040517f08c379a000000000000000000000000000000000000000000000000000000000815260040180806020018281038252600b8152602001807f4e6f74205072657373656400000000000000000000000000000000000000000081525060200191505060405180910390fd5b6000600a6000858152602001908152602001600020905082816009018190555060028160100160006101000a81548160ff0219169083600581111561276457fe5b02179055506103e88160000154026006819055506000816012018190555060008090505b81600c0154811015612ac05761279c6132d9565b60055481602001818152505081600654018160000181815250506006546103e860055402018160400181815250508260000154816101400181815250508260030160009054906101000a900473ffffffffffffffffffffffffffffffffffffffff16816060019073ffffffffffffffffffffffffffffffffffffffff16908173ffffffffffffffffffffffffffffffffffffffff16815250508260030160009054906101000a900473ffffffffffffffffffffffffffffffffffffffff16816080019073ffffffffffffffffffffffffffffffffffffffff16908173ffffffffffffffffffffffffffffffffffffffff1681525050848160e0018181525050600281610180019060058111156128ae57fe5b908160058111156128bb57fe5b815250508060096000600554815260200190815260200160002060008201518160000155602082015181600101556040820151816002015560608201518160030160006101000a81548173ffffffffffffffffffffffffffffffffffffffff021916908373ffffffffffffffffffffffffffffffffffffffff16021790555060808201518160040160006101000a81548173ffffffffffffffffffffffffffffffffffffffff021916908373ffffffffffffffffffffffffffffffffffffffff16021790555060a08201518160050160006101000a81548173ffffffffffffffffffffffffffffffffffffffff021916908373ffffffffffffffffffffffffffffffffffffffff16021790555060c08201518160060160006101000a81548173ffffffffffffffffffffffffffffffffffffffff021916908373ffffffffffffffffffffffffffffffffffffffff16021790555060e082015181600701556101008201518160080155610120820151816009015561014082015181600a015561016082015181600b015561018082015181600c0160006101000a81548160ff02191690836005811115612a6a57fe5b021790555090505060055483601301600084815260200190815260200160002081905550600183601201600082825401925050819055506001600560008282540192505081905550508080600101915050612788565b507f8aff1823bf9f30e2f7eacb17de47cc2917592a34188a0b47c0c228c82c38fc5481600001546040518082815260200191505060405180910390a150505050565b612b0b33612fd6565b565b612b1633611296565b612b1f57600080fd5b8460006005811115612b2d57fe5b600a600083815260200190815260200160002060100160009054906101000a900460ff166005811115612b5c57fe5b14612b6657600080fd5b6000600a60008881526020019081526020016000209050858160010160006101000a81548173ffffffffffffffffffffffffffffffffffffffff021916908373ffffffffffffffffffffffffffffffffffffffff160217905550858160030160006101000a81548173ffffffffffffffffffffffffffffffffffffffff021916908373ffffffffffffffffffffffffffffffffffffffff16021790555084816006019080519060200190612c1b929190613519565b5082816008018190555060018160100160006101000a81548160ff02191690836005811115612c4657fe5b02179055508381600c01819055507fbc3979d8d5506915d003e5226085458b0197152ba2fbb08d49992370051ba6ed81600001546040518082815260200191505060405180910390a150505050505050565b612ca133613030565b565b612cab6125d0565b612d1d576040517f08c379a000000000000000000000000000000000000000000000000000000000815260040180806020018281038252600e8152602001807f4e6f7420746865206f776e65722100000000000000000000000000000000000081525060200191505060405180910390fd5b612d268161308a565b50565b60008073ffffffffffffffffffffffffffffffffffffffff168273ffffffffffffffffffffffffffffffffffffffff161415612d6457600080fd5b8260000160008373ffffffffffffffffffffffffffffffffffffffff1673ffffffffffffffffffffffffffffffffffffffff16815260200190815260200160002060009054906101000a900460ff16905092915050565b612dcf81600261318290919063ffffffff16565b8073ffffffffffffffffffffffffffffffffffffffff167ea0477dded24b6f3ca0efb56770e84d7af0117bde8073e93a34e2f0b67f629260405160405180910390a250565b612e2881600361322e90919063ffffffff16565b8073ffffffffffffffffffffffffffffffffffffffff167fd50d62b726467f70db12c0823c62ab5a8a5e5075539f68fdfa111b2e77f203e960405160405180910390a250565b612e8281600461318290919063ffffffff16565b8073ffffffffffffffffffffffffffffffffffffffff167f37f2bb8f4596c61172526eb12f70fe6a1a9653a0b5fedbe1031b7a2bf71a27eb60405160405180910390a250565b612edc81600361318290919063ffffffff16565b8073ffffffffffffffffffffffffffffffffffffffff167f121731828b85b443d173e8dc86615a38927a5b1035349922533c0b02faa1103d60405160405180910390a250565b612f3681600161318290919063ffffffff16565b8073ffffffffffffffffffffffffffffffffffffffff167f2e0ded4123377a3c2bc9a26f1717655a129e2f20752924d42e730ec89c83dbd060405160405180910390a250565b612f9081600161322e90919063ffffffff16565b8073ffffffffffffffffffffffffffffffffffffffff167fa5e0f060af304ab17dd418c7927e3da3ae7868189bf387aee09ab179ccc572f260405160405180910390a250565b612fea81600461322e90919063ffffffff16565b8073ffffffffffffffffffffffffffffffffffffffff167f7c5ae0e07939db69fda08596f8822b6c8b745657804957ef938a645cff7fb5f360405160405180910390a250565b61304481600261322e90919063ffffffff16565b8073ffffffffffffffffffffffffffffffffffffffff167f83d8cce936a4bacce731675cb6d6de235957309cc48eb6a36aa7ae1811eb9fab60405160405180910390a250565b600073ffffffffffffffffffffffffffffffffffffffff168173ffffffffffffffffffffffffffffffffffffffff1614156130c457600080fd5b8073ffffffffffffffffffffffffffffffffffffffff166000809054906101000a900473ffffffffffffffffffffffffffffffffffffffff1673ffffffffffffffffffffffffffffffffffffffff167f5c486528ec3e3f0ea91181cff8116f02bfa350e03b8b6f12e00765adbb5af85c60405160405180910390a3806000806101000a81548173ffffffffffffffffffffffffffffffffffffffff021916908373ffffffffffffffffffffffffffffffffffffffff16021790555050565b600073ffffffffffffffffffffffffffffffffffffffff168173ffffffffffffffffffffffffffffffffffffffff1614156131bc57600080fd5b6131c68282612d29565b156131d057600080fd5b60018260000160008373ffffffffffffffffffffffffffffffffffffffff1673ffffffffffffffffffffffffffffffffffffffff16815260200190815260200160002060006101000a81548160ff0219169083151502179055505050565b600073ffffffffffffffffffffffffffffffffffffffff168173ffffffffffffffffffffffffffffffffffffffff16141561326857600080fd5b6132728282612d29565b61327b57600080fd5b60008260000160008373ffffffffffffffffffffffffffffffffffffffff1673ffffffffffffffffffffffffffffffffffffffff16815260200190815260200160002060006101000a81548160ff0219169083151502179055505050565b604051806101a00160405280600081526020016000815260200160008152602001600073ffffffffffffffffffffffffffffffffffffffff168152602001600073ffffffffffffffffffffffffffffffffffffffff168152602001600073ffffffffffffffffffffffffffffffffffffffff168152602001600073ffffffffffffffffffffffffffffffffffffffff16815260200160008152602001600081526020016000815260200160008152602001600081526020016000600581111561339e57fe5b81525090565b60405180610260016040528060008152602001600073ffffffffffffffffffffffffffffffffffffffff168152602001600073ffffffffffffffffffffffffffffffffffffffff168152602001600073ffffffffffffffffffffffffffffffffffffffff168152602001600073ffffffffffffffffffffffffffffffffffffffff16815260200160608152602001606081526020016000815260200160008152602001600081526020016000815260200160008152602001600081526020016060815260200160608152602001606081526020016000600581111561348557fe5b815260200160608152602001600081525090565b828054600181600116156101000203166002900490600052602060002090601f016020900481019282601f106134da57805160ff1916838001178555613508565b82800160010185558215613508579182015b828111156135075782518255916020019190600101906134ec565b5b5090506135159190613599565b5090565b828054600181600116156101000203166002900490600052602060002090601f016020900481019282601f1061355a57805160ff1916838001178555613588565b82800160010185558215613588579182015b8281111561358757825182559160200191906001019061356c565b5b5090506135959190613599565b5090565b6135bb91905b808211156135b757600081600090555060010161359f565b5090565b9056fea165627a7a723058206cd1d786ea47abd77d627a68bb7d1a97e8ac70ea45c7644ed1e476db7861c5410029",
  "source": "pragma solidity ^0.5.8;\n// Define a contract 'Supplychain'\nimport '../access_control/CostumerRole.sol';\nimport '../access_control/FarmerRole.sol';\nimport '../access_control/ShopRole.sol';\nimport '../access_control/MillRole.sol';\nimport '../core/Ownable.sol';\n\n\n/** @title  Organic Oil Manufacturer\n  * @author Stefan Zils\n  * @notice Organic Oil Manufacturer SupplyChain implementation for farmer to customer.\n  */\ncontract SupplyChain is Ownable, FarmerRole, MillRole, ShopRole, CostumerRole {\n\n  // Define a variable called 'upc' for Universal Product Code (UPC)\n  uint  upc;\n  // Define a variable called 'sku' for Stock Keeping Unit (SKU)\n  uint  sku;\n  // Oil Production Sequence\n  uint oilProductionID;\n  // Fields for production\n  uint fieldIDs;\n  // Define\n  uint constant factorProductID = 1000;\n\n  // Define a public mapping 'bottles' that maps the UPC to a bottle.\n  mapping(uint => Bottle) bottles;\n  // Define a public papping 'oilProductions' that maps the productionID to an OilProduction.\n  mapping(uint => OilProduction) oilProductions;\n\n\n   // Define enum 'State' with the following values:\n  enum State\n  {\n      Harvested,     // 0\n      Pressed,       // 1\n      Bottled,       // 2\n      Delivered,     // 3\n      InShop,         // 4\n      Sold           // 5\n  }\n\n\n  // Struct of the oil production process.\n  struct OilProduction {\n      uint productionID;    // ID of Oil Production\n\n      address ownerID;\n      address farmerID;     // Metamask-Ethereum address of the Farmer\n      address millID;       // Metamask-Ethereum address of the Mill, Redundancy with OilProduction\n      address shopID;\n\n      string farmerName;    // Name of the Farme\n      string millName;      // Name of the Mill\n\n      // Date of production step\n      uint harvestDate;\n      uint pressDate;\n      uint bottlingDate;\n      uint deliveryDate;\n      uint inShopDate;\n      uint amountLiters;\n\n      string fieldName;      // Field Name\n      string fieldLatitude;\n      string fieldLongitude;\n\n      State productionState;  // state of production\n      string notice;\n\n      uint bottleCount;\n      mapping (uint => uint)  bottleIDs;\n  }\n\n  // Define a struct 'Item' with the following fields:\n  struct Bottle {\n      uint    sku;        // Stock Keeping Unit (SKU)\n      uint    upc;        // Universal Product Code (UPC), generated by the Farmer, goes on the package, can be verified by the Consumer\n      uint    productID;  // Product ID potentially a combination of upc + sku\n\n      address ownerID;    // Metamask-Ethereum address of the current owner as the product moves through 8 stages\n      address millID;\n      address shopID;     // Metamask-Ethereum address of the Shop,\n      address costumerID; // Metamask-Ethereum address of the Consumer,\n\n      uint    bottleDate;\n      uint    inShopDate;\n      uint    sellDate;\n\n      uint    oilProductionID;  // OilProduction ID (Foreign Key, Reference)\n      uint    price;            // Bottle Price\n\n      State   bottleState;      // Product State as represented in the enum above\n  }\n\n  // Define 8 events with the same 8 state values and accept 'upc' as input argument\n  event Harvested(uint productionID);\n  event Pressed(uint productionID);\n  event Bottled(uint productionID);\n  event Delivered(uint productionID);\n  event InShop(uint upc);\n  event Sold(uint upc);\n\n  // Define a modifer that checks to see if msg.sender == owner of the contract\n  modifier onlyOwner() {\n      require(isOwner(), \"Not the owner!\");\n      _;\n  }\n\n  // Define a modifer that verifies the Caller\n  modifier verifyCaller (address _address) {\n    require(msg.sender == _address, \"Not the Caller\");\n    _;\n  }\n\n  // Define a modifier that checks if the paid amount is sufficient to cover the price\n  modifier paidEnough(uint _price) {\n    require(msg.value >= _price, \"Not Paid Enough\");\n    _;\n  }\n\n  // Define a modifier that checks the price and refunds the remaining balance\n  modifier checkValue(uint _upc) {\n    _;\n    uint _price = bottles[_upc].price;\n    uint amountToReturn = msg.value - _price;\n    msg.sender.transfer(amountToReturn);\n  }\n\n  // Define a modifier that checks if an item.state of a upc is Harvested\n  modifier harvested(uint _productionID) {\n    require(oilProductions[_productionID].productionState == State.Harvested);\n    _;\n  }\n\n  // Define a modifier that checks if an item.state of a upc is Processed\n  modifier pressed(uint _productionID) {\n    require(oilProductions[_productionID].productionState == State.Pressed, \"Not Pressed\");\n    _;\n  }\n\n  // Define a modifier that checks if an item.state of a upc is Packed\n  modifier bottled(uint _productionID) {\n    require(oilProductions[_productionID].productionState == State.Bottled, \"Not Bottled\");\n    _;\n  }\n\n  // Define a modifier that checks if an item.state of a upc is ForSale\n  modifier delivered(uint _productionID) {\n    require(oilProductions[_productionID].productionState == State.Delivered, \"Not Delivered\");\n    _;\n  }\n\n  // Define a modifier that checks if an item.state of a upc is Sold\n  modifier inShop(uint _upc) {\n    require(bottles[_upc].bottleState == State.InShop, \"Not in Shop\");\n    _;\n  }\n\n  // Define a modifier that checks if an item.state of a upc is Shipped\n  modifier sold(uint _upc) {\n    require(bottles[_upc].bottleState  == State.Sold, \"Not Sold\");\n    _;\n  }\n\n  // In the constructor set 'owner' to the address that instantiated the contract\n  // and set 'sku' to 1\n  // and set 'upc' to 1\n  constructor() public payable {\n      upc = 1;\n      oilProductionID = 1;\n  }\n\n  // Define a function 'kill' if required\n  function kill() public {\n    if (isOwner()) {\n      selfdestruct(msg.sender);\n    }\n  }\n\n   /**\n     * @dev describe the harvest as the first step of the OilProduction.\n     * @param _productionID ID of the OilProduction process.\n     * @param _farmerID address of the farmer\n     * @param _farmerName the name of the farm.\n     * @param _harvestDate date of harvesting.\n     * @param _fieldName the name of the field.\n     * @param _latitude the latitude of the field.\n     * @param _longitude the longitude of the field.\n     * @notice emit the Harvested Event. Only farmers can trigger this method.\n     */\n  function harvest(uint _productionID, address _farmerID, string memory  _farmerName, uint _harvestDate,\n      string memory _fieldName, string memory _latitude, string memory _longitude)\n      public\n      onlyFarmer()\n  {\n      OilProduction memory production;\n      production.productionID = _productionID;\n      production.ownerID = _farmerID;\n      production.farmerID = _farmerID;\n\n      production.farmerName = _farmerName;\n      production.harvestDate = _harvestDate;\n      production.productionState = State.Harvested;\n      production.fieldName = _fieldName;\n      production.fieldLatitude = _latitude;\n      production.fieldLongitude = _longitude;\n\n      oilProductions[production.productionID] = production;\n      oilProductionID += 1;\n\n      // Emit the appropriate event\n      emit Harvested(_productionID);\n  }\n\n\n   /**\n     * @dev describe the oil pressing process of the OilProduction.\n     * @param _productionID ID of the OilProduction process.\n     * @param _millName name of the mill.\n     * @param _amountLiters the number of liters of pressed oil.\n     * @param _pressDate date of the pressing.\n     * @notice emit the Pressed Event. Only a miller can trigger the method if the state is harvest (Harvested).\n     */\n  function press(uint _productionID, address _millID, string memory _millName, uint _amountLiters, uint _pressDate)\n      public\n      onlyMill()\n      harvested(_productionID)\n  {\n      OilProduction storage production = oilProductions[_productionID];\n\n      production.ownerID = _millID;\n      production.millID = _millID;\n\n      production.millName = _millName;\n      production.pressDate = _pressDate;\n      production.productionState = State.Pressed;\n      production.amountLiters = _amountLiters;\n\n      emit Pressed(production.productionID);\n  }\n\n  /**\n    * @dev describe the bottling process of the OilProduction.\n    * @param _productionID ID of the OilProduction process.\n    * @param _bottlingDate date of bottling.\n    * @notice emit the Bottled Event. Only a miller can trigger the method \n    * if the state is press (Pressed).\n    */\n  function bottling(uint _productionID, uint _bottlingDate)\n      public\n      onlyMill\n      pressed(_productionID)\n  {\n      OilProduction storage production = oilProductions[_productionID];\n      production.bottlingDate = _bottlingDate;\n      production.productionState = State.Bottled;\n\n      // generate sku with oilProductionID at the beginning.\n      sku=(production.productionID * factorProductID);\n      production.bottleCount=0;\n      for (uint i=0; i < production.amountLiters; i++) {\n        Bottle memory bottle;\n        bottle.upc = upc;\n        bottle.sku = sku + i;\n\n        // generate productionID from upc and sku.\n        bottle.productID = (upc * factorProductID) + sku;\n        bottle.oilProductionID = production.productionID;\n        bottle.ownerID = production.millID;\n        bottle.millID = production.millID;\n        bottle.bottleDate = _bottlingDate;\n        bottle.bottleState = State.Bottled;\n\n        bottles[upc] = bottle;\n        // List for delivery and later control\n        production.bottleIDs[i] = upc;\n        production.bottleCount += 1;\n        upc += 1;\n      }\n      emit Bottled(production.productionID);\n  }\n\n  /**\n    * @dev describe the bottling process of the OilProduction.\n    * @param _productionID ID of the OilProduction process.\n    * @param _deliveryDate date of delivery.\n    * @notice emit the Delivered Event. Only a miller can trigger the method \n    * if the state is bottle (Bottled).\n    */\n  function deliver(uint _productionID, address _shopID, uint _deliveryDate)\n      public\n      onlyMill\n      bottled(_productionID)\n   {\n      OilProduction storage production = oilProductions[_productionID];\n      production.ownerID = _shopID;\n      production.shopID = _shopID;\n      production.deliveryDate = _deliveryDate;\n      production.productionState = State.Delivered;\n\n      for (uint i=0; i < production.bottleCount; i++) {\n          Bottle storage bottle = bottles[production.bottleIDs[i]];\n          bottle.ownerID = _shopID;\n          bottle.shopID = _shopID;\n          bottle.bottleState = State.Delivered;\n      }\n\n      emit Delivered(production.productionID);\n  }\n\n\n  function getDelivery(uint _productionID, uint _inShopDate, uint _price)\n      public\n      onlyShop\n      delivered(_productionID)\n  {\n    OilProduction storage production = oilProductions[_productionID];\n    production.inShopDate = _inShopDate;\n    production.productionState = State.InShop;\n\n    for (uint i=0; i < production.bottleCount; i++) {\n      Bottle storage bottle = bottles[production.bottleIDs[i]];\n      bottle.price = _price;\n      bottle.bottleState = State.InShop;\n    }\n\n    emit InShop(production.productionID);\n  }\n\n  function sellBottle(uint _upc)\n    public\n    payable\n    onlyCostumer\n    inShop(_upc)\n    paidEnough(bottles[_upc].price)\n    checkValue(_upc)\n  {\n    Bottle storage bottle = bottles[_upc];\n\n    bottle.bottleState = State.Sold;\n    bottle.ownerID = msg.sender;\n    bottle.costumerID = msg.sender;\n\n    address payable shopID = address(uint160(bottle.shopID));\n    shopID.transfer(bottle.price);\n\n    emit Sold(bottle.upc);\n  }\n\n  /**\n    * @dev fetch the oil production data from the farm perspective.\n    * @param _productionID ID of the OilProduction process.\n    */\n  function fetchOilProductionFarm(uint _productionID) public view returns\n  (\n      address,\n      address,\n      string memory,\n      uint,\n      string memory,\n      string memory,\n      string memory,\n      State\n  )\n  {\n      OilProduction storage oilProduction = oilProductions[_productionID];\n      return\n      (\n          oilProduction.ownerID,        // 0\n          oilProduction.farmerID,       // 1\n          oilProduction.farmerName,     // 2\n          oilProduction.harvestDate,    // 3\n          oilProduction.fieldName,      // 4\n          oilProduction.fieldLatitude,  // 5\n          oilProduction.fieldLongitude, // 6\n          oilProduction.productionState // 7\n      );\n  }\n\n    /**\n    * @dev fetch the oil production data from the mill and shop perspective.\n    * @param _productionID ID of the OilProduction process.\n    */\n  function fetchOilProduction(uint _productionID) public view returns\n  (\n      address,\n      address,\n      address,\n      string memory,\n      uint,\n      uint,\n      uint,\n      uint,\n      uint,  \n      uint,\n      State\n  )\n  {\n      OilProduction storage oilProduction = oilProductions[_productionID];\n      return\n      (\n          oilProduction.ownerID,        // 0\n          oilProduction.millID,         // 1\n          oilProduction.shopID,         // 2\n          oilProduction.millName,       // 3\n          oilProduction.pressDate,      // 4\n          oilProduction.amountLiters,   // 5\n          oilProduction.bottlingDate,   // 6\n          oilProduction.deliveryDate,   // 7\n          oilProduction.inShopDate,     // 8\n          oilProduction.bottleCount,    // 9  \n          oilProduction.productionState // 10\n      );\n  }\n\n\n  /**\n    * @dev fetch a bottle.\n    * @param _upc Universal Product Code, identifier to fetch a bottle in the supply chain.\n    */  \n  function fetchBottle(uint _upc) public view returns\n  (\n      uint,\n      uint,\n      address,\n      address,\n      address,\n      address,\n      uint,\n      uint,\n      uint,\n      uint,\n      uint,\n      State\n  )\n  {\n    Bottle memory bottle = bottles[_upc];\n    return\n    (\n      bottle.sku,             // 0\n      bottle.productID,       // 1\n      bottle.ownerID,         // 2\n      bottle.millID,          // 3\n      bottle.shopID,          // 4\n      bottle.costumerID,      // 5\n      bottle.bottleDate,      // 6\n      bottle.inShopDate,      // 7\n      bottle.sellDate,        // 8\n      bottle.oilProductionID, // 9\n      bottle.price,           // 10\n      bottle.bottleState      // 11\n    );\n  }\n}\n",
  "sourcePath": "/Users/stefanzils/Documents/GitHub/organicOilSupply/impl/contracts/base/SupplyChain.sol",
  "compiler": {
    "name": "solc",
    "version": "0.5.8+commit.23d335f2.Emscripten.clang"
  },
  "schemaVersion": "3.0.14",
  "updatedAt": "2019-09-27T11:34:22.879Z",
  "devdoc": {
    "author": "Stefan Zils",
    "methods": {
      "bottling(uint256,uint256)": {
        "details": "describe the bottling process of the OilProduction.",
        "params": {
          "_bottlingDate": "date of bottling.",
          "_productionID": "ID of the OilProduction process."
        }
      },
      "deliver(uint256,address,uint256)": {
        "details": "describe the bottling process of the OilProduction.",
        "params": {
          "_deliveryDate": "date of delivery.",
          "_productionID": "ID of the OilProduction process."
        }
      },
      "fetchBottle(uint256)": {
        "details": "fetch a bottle.",
        "params": {
          "_upc": "Universal Product Code, identifier to fetch a bottle in the supply chain."
        }
      },
      "fetchOilProduction(uint256)": {
        "details": "fetch the oil production data from the mill and shop perspective.",
        "params": {
          "_productionID": "ID of the OilProduction process."
        }
      },
      "fetchOilProductionFarm(uint256)": {
        "details": "fetch the oil production data from the farm perspective.",
        "params": {
          "_productionID": "ID of the OilProduction process."
        }
      },
      "harvest(uint256,address,string,uint256,string,string,string)": {
        "details": "describe the harvest as the first step of the OilProduction.",
        "params": {
          "_farmerID": "address of the farmer",
          "_farmerName": "the name of the farm.",
          "_fieldName": "the name of the field.",
          "_harvestDate": "date of harvesting.",
          "_latitude": "the latitude of the field.",
          "_longitude": "the longitude of the field.",
          "_productionID": "ID of the OilProduction process."
        }
      },
      "press(uint256,address,string,uint256,uint256)": {
        "details": "describe the oil pressing process of the OilProduction.",
        "params": {
          "_amountLiters": "the number of liters of pressed oil.",
          "_millName": "name of the mill.",
          "_pressDate": "date of the pressing.",
          "_productionID": "ID of the OilProduction process."
        }
      }
    },
    "title": "Organic Oil Manufacturer"
  },
  "userdoc": {
    "methods": {
      "bottling(uint256,uint256)": {
        "notice": "emit the Bottled Event. Only a miller can trigger the method  if the state is press (Pressed)."
      },
      "deliver(uint256,address,uint256)": {
        "notice": "emit the Delivered Event. Only a miller can trigger the method  if the state is bottle (Bottled)."
      },
      "harvest(uint256,address,string,uint256,string,string,string)": {
        "notice": "emit the Harvested Event. Only farmers can trigger this method."
      },
      "isOwner()": {
        "notice": "Check if the calling address is the owner of the contract"
      },
      "owner()": {
        "notice": "Look up the address of the owner"
      },
      "press(uint256,address,string,uint256,uint256)": {
        "notice": "emit the Pressed Event. Only a miller can trigger the method if the state is harvest (Harvested)."
      },
      "renounceOwnership()": {
        "notice": "Define a function to renounce ownerhip"
      },
      "transferOwnership(address)": {
        "notice": "Define a public function to transfer ownership"
      }
    },
    "notice": "Organic Oil Manufacturer SupplyChain implementation for farmer to customer."
  }
}