{
  "contractName": "SupplyChain",
  "abi": [
    {
      "constant": true,
      "inputs": [
        {
          "name": "account",
          "type": "address"
        }
      ],
      "name": "isMill",
      "outputs": [
        {
          "name": "",
          "type": "bool"
        }
      ],
      "payable": false,
      "stateMutability": "view",
      "type": "function"
    },
    {
      "constant": false,
      "inputs": [
        {
          "name": "account",
          "type": "address"
        }
      ],
      "name": "addMill",
      "outputs": [],
      "payable": false,
      "stateMutability": "nonpayable",
      "type": "function"
    },
    {
      "constant": true,
      "inputs": [
        {
          "name": "account",
          "type": "address"
        }
      ],
      "name": "isShop",
      "outputs": [
        {
          "name": "",
          "type": "bool"
        }
      ],
      "payable": false,
      "stateMutability": "view",
      "type": "function"
    },
    {
      "constant": false,
      "inputs": [],
      "name": "renounceShop",
      "outputs": [],
      "payable": false,
      "stateMutability": "nonpayable",
      "type": "function"
    },
    {
      "constant": false,
      "inputs": [
        {
          "name": "account",
          "type": "address"
        }
      ],
      "name": "addCostumer",
      "outputs": [],
      "payable": false,
      "stateMutability": "nonpayable",
      "type": "function"
    },
    {
      "constant": false,
      "inputs": [],
      "name": "renounceOwnership",
      "outputs": [],
      "payable": false,
      "stateMutability": "nonpayable",
      "type": "function"
    },
    {
      "constant": false,
      "inputs": [
        {
          "name": "account",
          "type": "address"
        }
      ],
      "name": "addShop",
      "outputs": [],
      "payable": false,
      "stateMutability": "nonpayable",
      "type": "function"
    },
    {
      "constant": false,
      "inputs": [
        {
          "name": "account",
          "type": "address"
        }
      ],
      "name": "addFarmer",
      "outputs": [],
      "payable": false,
      "stateMutability": "nonpayable",
      "type": "function"
    },
    {
      "constant": false,
      "inputs": [],
      "name": "renounceFarmer",
      "outputs": [],
      "payable": false,
      "stateMutability": "nonpayable",
      "type": "function"
    },
    {
      "constant": true,
      "inputs": [],
      "name": "owner",
      "outputs": [
        {
          "name": "",
          "type": "address"
        }
      ],
      "payable": false,
      "stateMutability": "view",
      "type": "function"
    },
    {
      "constant": true,
      "inputs": [],
      "name": "isOwner",
      "outputs": [
        {
          "name": "",
          "type": "bool"
        }
      ],
      "payable": false,
      "stateMutability": "view",
      "type": "function"
    },
    {
      "constant": true,
      "inputs": [
        {
          "name": "account",
          "type": "address"
        }
      ],
      "name": "isCostumer",
      "outputs": [
        {
          "name": "",
          "type": "bool"
        }
      ],
      "payable": false,
      "stateMutability": "view",
      "type": "function"
    },
    {
      "constant": true,
      "inputs": [
        {
          "name": "account",
          "type": "address"
        }
      ],
      "name": "isFarmer",
      "outputs": [
        {
          "name": "",
          "type": "bool"
        }
      ],
      "payable": false,
      "stateMutability": "view",
      "type": "function"
    },
    {
      "constant": false,
      "inputs": [],
      "name": "renounceCostumer",
      "outputs": [],
      "payable": false,
      "stateMutability": "nonpayable",
      "type": "function"
    },
    {
      "constant": false,
      "inputs": [],
      "name": "renounceMill",
      "outputs": [],
      "payable": false,
      "stateMutability": "nonpayable",
      "type": "function"
    },
    {
      "constant": false,
      "inputs": [
        {
          "name": "newOwner",
          "type": "address"
        }
      ],
      "name": "transferOwnership",
      "outputs": [],
      "payable": false,
      "stateMutability": "nonpayable",
      "type": "function"
    },
    {
      "inputs": [],
      "payable": true,
      "stateMutability": "payable",
      "type": "constructor"
    },
    {
      "anonymous": false,
      "inputs": [
        {
          "indexed": false,
          "name": "productionID",
          "type": "uint256"
        }
      ],
      "name": "Harvested",
      "type": "event"
    },
    {
      "anonymous": false,
      "inputs": [
        {
          "indexed": false,
          "name": "productionID",
          "type": "uint256"
        }
      ],
      "name": "Pressed",
      "type": "event"
    },
    {
      "anonymous": false,
      "inputs": [
        {
          "indexed": false,
          "name": "productionID",
          "type": "uint256"
        }
      ],
      "name": "Bottled",
      "type": "event"
    },
    {
      "anonymous": false,
      "inputs": [
        {
          "indexed": false,
          "name": "productionID",
          "type": "uint256"
        }
      ],
      "name": "Delivered",
      "type": "event"
    },
    {
      "anonymous": false,
      "inputs": [
        {
          "indexed": false,
          "name": "upc",
          "type": "uint256"
        }
      ],
      "name": "InShop",
      "type": "event"
    },
    {
      "anonymous": false,
      "inputs": [
        {
          "indexed": false,
          "name": "upc",
          "type": "uint256"
        }
      ],
      "name": "Sold",
      "type": "event"
    },
    {
      "anonymous": false,
      "inputs": [
        {
          "indexed": true,
          "name": "account",
          "type": "address"
        }
      ],
      "name": "CostumerAdded",
      "type": "event"
    },
    {
      "anonymous": false,
      "inputs": [
        {
          "indexed": true,
          "name": "account",
          "type": "address"
        }
      ],
      "name": "CostumerRemoved",
      "type": "event"
    },
    {
      "anonymous": false,
      "inputs": [
        {
          "indexed": true,
          "name": "account",
          "type": "address"
        }
      ],
      "name": "ShopAdded",
      "type": "event"
    },
    {
      "anonymous": false,
      "inputs": [
        {
          "indexed": true,
          "name": "account",
          "type": "address"
        }
      ],
      "name": "ShopRemoved",
      "type": "event"
    },
    {
      "anonymous": false,
      "inputs": [
        {
          "indexed": true,
          "name": "account",
          "type": "address"
        }
      ],
      "name": "MillAdded",
      "type": "event"
    },
    {
      "anonymous": false,
      "inputs": [
        {
          "indexed": true,
          "name": "account",
          "type": "address"
        }
      ],
      "name": "MillRemoved",
      "type": "event"
    },
    {
      "anonymous": false,
      "inputs": [
        {
          "indexed": true,
          "name": "account",
          "type": "address"
        }
      ],
      "name": "FarmerAdded",
      "type": "event"
    },
    {
      "anonymous": false,
      "inputs": [
        {
          "indexed": true,
          "name": "account",
          "type": "address"
        }
      ],
      "name": "FarmerRemoved",
      "type": "event"
    },
    {
      "anonymous": false,
      "inputs": [
        {
          "indexed": true,
          "name": "oldOwner",
          "type": "address"
        },
        {
          "indexed": true,
          "name": "newOwner",
          "type": "address"
        }
      ],
      "name": "TransferOwnership",
      "type": "event"
    },
    {
      "constant": false,
      "inputs": [],
      "name": "kill",
      "outputs": [],
      "payable": false,
      "stateMutability": "nonpayable",
      "type": "function"
    },
    {
      "constant": false,
      "inputs": [
        {
          "name": "_productionID",
          "type": "uint256"
        },
        {
          "name": "_farmerID",
          "type": "address"
        },
        {
          "name": "_farmerName",
          "type": "string"
        },
        {
          "name": "_harvestDate",
          "type": "uint256"
        },
        {
          "name": "_fieldName",
          "type": "string"
        },
        {
          "name": "_latitude",
          "type": "string"
        },
        {
          "name": "_longitude",
          "type": "string"
        }
      ],
      "name": "harvest",
      "outputs": [],
      "payable": false,
      "stateMutability": "nonpayable",
      "type": "function"
    },
    {
      "constant": false,
      "inputs": [
        {
          "name": "_productionID",
          "type": "uint256"
        },
        {
          "name": "_millName",
          "type": "string"
        },
        {
          "name": "_amountLiters",
          "type": "uint256"
        },
        {
          "name": "_pressDate",
          "type": "uint256"
        }
      ],
      "name": "press",
      "outputs": [],
      "payable": false,
      "stateMutability": "nonpayable",
      "type": "function"
    },
    {
      "constant": false,
      "inputs": [
        {
          "name": "_productionID",
          "type": "uint256"
        },
        {
          "name": "_bottlingDate",
          "type": "uint256"
        }
      ],
      "name": "bottling",
      "outputs": [],
      "payable": false,
      "stateMutability": "nonpayable",
      "type": "function"
    },
    {
      "constant": false,
      "inputs": [
        {
          "name": "_productionID",
          "type": "uint256"
        },
        {
          "name": "_deliveryDate",
          "type": "uint256"
        }
      ],
      "name": "deliver",
      "outputs": [],
      "payable": false,
      "stateMutability": "nonpayable",
      "type": "function"
    },
    {
      "constant": false,
      "inputs": [
        {
          "name": "_productionID",
          "type": "uint256"
        },
        {
          "name": "_inShopDate",
          "type": "uint256"
        },
        {
          "name": "_price",
          "type": "uint256"
        }
      ],
      "name": "getDelivery",
      "outputs": [],
      "payable": false,
      "stateMutability": "nonpayable",
      "type": "function"
    },
    {
      "constant": false,
      "inputs": [
        {
          "name": "_upc",
          "type": "uint256"
        }
      ],
      "name": "sellBottle",
      "outputs": [],
      "payable": true,
      "stateMutability": "payable",
      "type": "function"
    },
    {
      "constant": true,
      "inputs": [
        {
          "name": "_productionID",
          "type": "uint256"
        }
      ],
      "name": "fetchOilProductionFarm",
      "outputs": [
        {
          "name": "",
          "type": "address"
        },
        {
          "name": "",
          "type": "address"
        },
        {
          "name": "",
          "type": "string"
        },
        {
          "name": "",
          "type": "uint256"
        },
        {
          "name": "",
          "type": "string"
        },
        {
          "name": "",
          "type": "string"
        },
        {
          "name": "",
          "type": "string"
        },
        {
          "name": "",
          "type": "uint8"
        }
      ],
      "payable": false,
      "stateMutability": "view",
      "type": "function"
    },
    {
      "constant": true,
      "inputs": [
        {
          "name": "_productionID",
          "type": "uint256"
        }
      ],
      "name": "fetchOilProduction",
      "outputs": [
        {
          "name": "",
          "type": "address"
        },
        {
          "name": "",
          "type": "address"
        },
        {
          "name": "",
          "type": "address"
        },
        {
          "name": "",
          "type": "string"
        },
        {
          "name": "",
          "type": "uint256"
        },
        {
          "name": "",
          "type": "uint256"
        },
        {
          "name": "",
          "type": "uint256"
        },
        {
          "name": "",
          "type": "uint256"
        },
        {
          "name": "",
          "type": "uint256"
        },
        {
          "name": "",
          "type": "uint8"
        }
      ],
      "payable": false,
      "stateMutability": "view",
      "type": "function"
    },
    {
      "constant": true,
      "inputs": [
        {
          "name": "_upc",
          "type": "uint256"
        }
      ],
      "name": "fetchBottle",
      "outputs": [
        {
          "name": "",
          "type": "uint256"
        },
        {
          "name": "",
          "type": "uint256"
        },
        {
          "name": "",
          "type": "address"
        },
        {
          "name": "",
          "type": "address"
        },
        {
          "name": "",
          "type": "address"
        },
        {
          "name": "",
          "type": "address"
        },
        {
          "name": "",
          "type": "uint256"
        },
        {
          "name": "",
          "type": "uint256"
        }
      ],
      "payable": false,
      "stateMutability": "view",
      "type": "function"
    }
  ],
  "bytecode": "0x6080604052336000806101000a81548173ffffffffffffffffffffffffffffffffffffffff021916908373ffffffffffffffffffffffffffffffffffffffff1602179055506000809054906101000a900473ffffffffffffffffffffffffffffffffffffffff1673ffffffffffffffffffffffffffffffffffffffff16600073ffffffffffffffffffffffffffffffffffffffff167f5c486528ec3e3f0ea91181cff8116f02bfa350e03b8b6f12e00765adbb5af85c60405160405180910390a3620000d1336200011a60201b60201c565b620000e2336200017b60201b60201c565b620000f333620001db60201b60201c565b62000104336200023c60201b60201c565b60016005819055506001600781905550620003e6565b620001358160016200029d60201b620031c31790919060201c565b8073ffffffffffffffffffffffffffffffffffffffff167f2e0ded4123377a3c2bc9a26f1717655a129e2f20752924d42e730ec89c83dbd060405160405180910390a250565b620001968160026200029d60201b620031c31790919060201c565b8073ffffffffffffffffffffffffffffffffffffffff167ea0477dded24b6f3ca0efb56770e84d7af0117bde8073e93a34e2f0b67f629260405160405180910390a250565b620001f68160036200029d60201b620031c31790919060201c565b8073ffffffffffffffffffffffffffffffffffffffff167f121731828b85b443d173e8dc86615a38927a5b1035349922533c0b02faa1103d60405160405180910390a250565b620002578160046200029d60201b620031c31790919060201c565b8073ffffffffffffffffffffffffffffffffffffffff167f37f2bb8f4596c61172526eb12f70fe6a1a9653a0b5fedbe1031b7a2bf71a27eb60405160405180910390a250565b600073ffffffffffffffffffffffffffffffffffffffff168173ffffffffffffffffffffffffffffffffffffffff161415620002d857600080fd5b620002ea82826200035360201b60201c565b15620002f557600080fd5b60018260000160008373ffffffffffffffffffffffffffffffffffffffff1673ffffffffffffffffffffffffffffffffffffffff16815260200190815260200160002060006101000a81548160ff0219169083151502179055505050565b60008073ffffffffffffffffffffffffffffffffffffffff168273ffffffffffffffffffffffffffffffffffffffff1614156200038f57600080fd5b8260000160008373ffffffffffffffffffffffffffffffffffffffff1673ffffffffffffffffffffffffffffffffffffffff16815260200190815260200160002060009054906101000a900460ff16905092915050565b61362b80620003f66000396000f3fe6080604052600436106101815760003560e01c8063715018a6116100d15780638f32d59b1161008a578063dbf00fa911610064578063dbf00fa914610ee8578063e4fe915914610f2d578063e77f6d0514610f44578063f2fde38b14610f5b57610181565b80638f32d59b14610de75780639e6edefc14610e16578063b942906914610e7f57610181565b8063715018a614610c7b57806378fbb04f14610c925780637b8ac66b14610ce357806380c3f96d14610d2857806380fc0ce414610d795780638da5cb5b14610d9057610181565b8063300239341161013e57806356c8bd921161011857806356c8bd921461085557806357c1f5d8146108a657806360ee90f2146108d45780636ffd163d14610b9557610181565b806330023934146107d857806341c0e1b51461082757806343e5c8301461083e57610181565b80630584921614610186578063150e3465146102b657806318b50d071461031f5780631927ae21146103705780631c29642e146104f55780631d0e8a4d1461076f575b600080fd5b34801561019257600080fd5b506101bf600480360360208110156101a957600080fd5b8101908080359060200190929190505050610fac565b604051808981526020018881526020018773ffffffffffffffffffffffffffffffffffffffff1673ffffffffffffffffffffffffffffffffffffffff1681526020018673ffffffffffffffffffffffffffffffffffffffff1673ffffffffffffffffffffffffffffffffffffffff1681526020018573ffffffffffffffffffffffffffffffffffffffff1673ffffffffffffffffffffffffffffffffffffffff1681526020018473ffffffffffffffffffffffffffffffffffffffff1673ffffffffffffffffffffffffffffffffffffffff1681526020018381526020018281526020019850505050505050505060405180910390f35b3480156102c257600080fd5b50610305600480360360208110156102d957600080fd5b81019080803573ffffffffffffffffffffffffffffffffffffffff1690602001909291905050506111fb565b604051808215151515815260200191505060405180910390f35b34801561032b57600080fd5b5061036e6004803603602081101561034257600080fd5b81019080803573ffffffffffffffffffffffffffffffffffffffff169060200190929190505050611218565b005b34801561037c57600080fd5b506103a96004803603602081101561039357600080fd5b8101908080359060200190929190505050611236565b604051808b73ffffffffffffffffffffffffffffffffffffffff1673ffffffffffffffffffffffffffffffffffffffff1681526020018a73ffffffffffffffffffffffffffffffffffffffff1673ffffffffffffffffffffffffffffffffffffffff1681526020018973ffffffffffffffffffffffffffffffffffffffff1673ffffffffffffffffffffffffffffffffffffffff1681526020018060200188815260200187815260200186815260200185815260200184815260200183600581111561047157fe5b60ff168152602001828103825289818151815260200191508051906020019080838360005b838110156104b1578082015181840152602081019050610496565b50505050905090810190601f1680156104de5780820380516001836020036101000a031916815260200191505b509b50505050505050505050505060405180910390f35b34801561050157600080fd5b5061052e6004803603602081101561051857600080fd5b81019080803590602001909291905050506113b9565b604051808973ffffffffffffffffffffffffffffffffffffffff1673ffffffffffffffffffffffffffffffffffffffff1681526020018873ffffffffffffffffffffffffffffffffffffffff1673ffffffffffffffffffffffffffffffffffffffff168152602001806020018781526020018060200180602001806020018660058111156105b857fe5b60ff16815260200185810385528b818151815260200191508051906020019080838360005b838110156105f85780820151818401526020810190506105dd565b50505050905090810190601f1680156106255780820380516001836020036101000a031916815260200191505b50858103845289818151815260200191508051906020019080838360005b8381101561065e578082015181840152602081019050610643565b50505050905090810190601f16801561068b5780820380516001836020036101000a031916815260200191505b50858103835288818151815260200191508051906020019080838360005b838110156106c45780820151818401526020810190506106a9565b50505050905090810190601f1680156106f15780820380516001836020036101000a031916815260200191505b50858103825287818151815260200191508051906020019080838360005b8381101561072a57808201518184015260208101905061070f565b50505050905090810190601f1680156107575780820380516001836020036101000a031916815260200191505b509c5050505050505050505050505060405180910390f35b34801561077b57600080fd5b506107be6004803603602081101561079257600080fd5b81019080803573ffffffffffffffffffffffffffffffffffffffff1690602001909291905050506116da565b604051808215151515815260200191505060405180910390f35b3480156107e457600080fd5b50610825600480360360608110156107fb57600080fd5b810190808035906020019092919080359060200190929190803590602001909291905050506116f7565b005b34801561083357600080fd5b5061083c6119c9565b005b34801561084a57600080fd5b506108536119f1565b005b34801561086157600080fd5b506108a46004803603602081101561087857600080fd5b81019080803573ffffffffffffffffffffffffffffffffffffffff1690602001909291905050506119fc565b005b6108d2600480360360208110156108bc57600080fd5b8101908080359060200190929190505050611a83565b005b3480156108e057600080fd5b50610b93600480360360e08110156108f757600080fd5b8101908080359060200190929190803573ffffffffffffffffffffffffffffffffffffffff1690602001909291908035906020019064010000000081111561093e57600080fd5b82018360208201111561095057600080fd5b8035906020019184600183028401116401000000008311171561097257600080fd5b91908080601f016020809104026020016040519081016040528093929190818152602001838380828437600081840152601f19601f82011690508083019250505050505050919291929080359060200190929190803590602001906401000000008111156109df57600080fd5b8201836020820111156109f157600080fd5b80359060200191846001830284011164010000000083111715610a1357600080fd5b91908080601f016020809104026020016040519081016040528093929190818152602001838380828437600081840152601f19601f82011690508083019250505050505050919291929080359060200190640100000000811115610a7657600080fd5b820183602082011115610a8857600080fd5b80359060200191846001830284011164010000000083111715610aaa57600080fd5b91908080601f016020809104026020016040519081016040528093929190818152602001838380828437600081840152601f19601f82011690508083019250505050505050919291929080359060200190640100000000811115610b0d57600080fd5b820183602082011115610b1f57600080fd5b80359060200191846001830284011164010000000083111715610b4157600080fd5b91908080601f016020809104026020016040519081016040528093929190818152602001838380828437600081840152601f19601f820116905080830192505050505050509192919290505050611e21565b005b348015610ba157600080fd5b50610c7960048036036080811015610bb857600080fd5b810190808035906020019092919080359060200190640100000000811115610bdf57600080fd5b820183602082011115610bf157600080fd5b80359060200191846001830284011164010000000083111715610c1357600080fd5b91908080601f016020809104026020016040519081016040528093929190818152602001838380828437600081840152601f19601f82011690508083019250505050505050919291929080359060200190929190803590602001909291905050506121c5565b005b348015610c8757600080fd5b50610c9061234f565b005b348015610c9e57600080fd5b50610ce160048036036020811015610cb557600080fd5b81019080803573ffffffffffffffffffffffffffffffffffffffff169060200190929190505050612488565b005b348015610cef57600080fd5b50610d2660048036036040811015610d0657600080fd5b8101908080359060200190929190803590602001909291905050506124a6565b005b348015610d3457600080fd5b50610d7760048036036020811015610d4b57600080fd5b81019080803573ffffffffffffffffffffffffffffffffffffffff16906020019092919050505061276e565b005b348015610d8557600080fd5b50610d8e61278c565b005b348015610d9c57600080fd5b50610da5612797565b604051808273ffffffffffffffffffffffffffffffffffffffff1673ffffffffffffffffffffffffffffffffffffffff16815260200191505060405180910390f35b348015610df357600080fd5b50610dfc6127c0565b604051808215151515815260200191505060405180910390f35b348015610e2257600080fd5b50610e6560048036036020811015610e3957600080fd5b81019080803573ffffffffffffffffffffffffffffffffffffffff169060200190929190505050612817565b604051808215151515815260200191505060405180910390f35b348015610e8b57600080fd5b50610ece60048036036020811015610ea257600080fd5b81019080803573ffffffffffffffffffffffffffffffffffffffff169060200190929190505050612834565b604051808215151515815260200191505060405180910390f35b348015610ef457600080fd5b50610f2b60048036036040811015610f0b57600080fd5b810190808035906020019092919080359060200190929190505050612851565b005b348015610f3957600080fd5b50610f42612cce565b005b348015610f5057600080fd5b50610f59612cd9565b005b348015610f6757600080fd5b50610faa60048036036020811015610f7e57600080fd5b81019080803573ffffffffffffffffffffffffffffffffffffffff169060200190929190505050612ce4565b005b600080600080600080600080610fc061331a565b600960008b8152602001908152602001600020604051806101a00160405290816000820154815260200160018201548152602001600282015481526020016003820160009054906101000a900473ffffffffffffffffffffffffffffffffffffffff1673ffffffffffffffffffffffffffffffffffffffff1673ffffffffffffffffffffffffffffffffffffffff1681526020016004820160009054906101000a900473ffffffffffffffffffffffffffffffffffffffff1673ffffffffffffffffffffffffffffffffffffffff1673ffffffffffffffffffffffffffffffffffffffff1681526020016005820160009054906101000a900473ffffffffffffffffffffffffffffffffffffffff1673ffffffffffffffffffffffffffffffffffffffff1673ffffffffffffffffffffffffffffffffffffffff1681526020016006820160009054906101000a900473ffffffffffffffffffffffffffffffffffffffff1673ffffffffffffffffffffffffffffffffffffffff1673ffffffffffffffffffffffffffffffffffffffff168152602001600782015481526020016008820154815260200160098201548152602001600a8201548152602001600b8201548152602001600c820160009054906101000a900460ff1660058111156111a557fe5b60058111156111b057fe5b81525050905080600001518160400151826060015183608001518460a001518560c001518660e001518761010001519850985098509850985098509850985050919395975091939597565b6000611211826002612d6a90919063ffffffff16565b9050919050565b611221336111fb565b61122a57600080fd5b61123381612dfc565b50565b600080600060606000806000806000806000600a60008d815260200190815260200160002090508060010160009054906101000a900473ffffffffffffffffffffffffffffffffffffffff168160030160009054906101000a900473ffffffffffffffffffffffffffffffffffffffff168260040160009054906101000a900473ffffffffffffffffffffffffffffffffffffffff1683600601846008015485600c0154866009015487600a015488600b01548960100160009054906101000a900460ff16868054600181600116156101000203166002900480601f0160208091040260200160405190810160405280929190818152602001828054600181600116156101000203166002900480156113905780601f1061136557610100808354040283529160200191611390565b820191906000526020600020905b81548152906001019060200180831161137357829003601f168201915b505050505096509a509a509a509a509a509a509a509a509a509a50509193959799509193959799565b600080606060006060806060600080600a60008b815260200190815260200160002090508060010160009054906101000a900473ffffffffffffffffffffffffffffffffffffffff168160020160009054906101000a900473ffffffffffffffffffffffffffffffffffffffff1682600501836007015484600d0185600e0186600f018760100160009054906101000a900460ff16858054600181600116156101000203166002900480601f0160208091040260200160405190810160405280929190818152602001828054600181600116156101000203166002900480156114e35780601f106114b8576101008083540402835291602001916114e3565b820191906000526020600020905b8154815290600101906020018083116114c657829003601f168201915b50505050509550838054600181600116156101000203166002900480601f01602080910402602001604051908101604052809291908181526020018280546001816001161561010002031660029004801561157f5780601f106115545761010080835404028352916020019161157f565b820191906000526020600020905b81548152906001019060200180831161156257829003601f168201915b50505050509350828054600181600116156101000203166002900480601f01602080910402602001604051908101604052809291908181526020018280546001816001161561010002031660029004801561161b5780601f106115f05761010080835404028352916020019161161b565b820191906000526020600020905b8154815290600101906020018083116115fe57829003601f168201915b50505050509250818054600181600116156101000203166002900480601f0160208091040260200160405190810160405280929190818152602001828054600181600116156101000203166002900480156116b75780601f1061168c576101008083540402835291602001916116b7565b820191906000526020600020905b81548152906001019060200180831161169a57829003601f168201915b505050505091509850985098509850985098509850985050919395975091939597565b60006116f0826003612d6a90919063ffffffff16565b9050919050565b611700336116da565b61170957600080fd5b826003600581111561171757fe5b600a600083815260200190815260200160002060100160009054906101000a900460ff16600581111561174657fe5b146117b9576040517f08c379a000000000000000000000000000000000000000000000000000000000815260040180806020018281038252600d8152602001807f4e6f742044656c6976657265640000000000000000000000000000000000000081525060200191505060405180910390fd5b6000600a60008681526020019081526020016000209050338160010160006101000a81548173ffffffffffffffffffffffffffffffffffffffff021916908373ffffffffffffffffffffffffffffffffffffffff160217905550338160040160006101000a81548173ffffffffffffffffffffffffffffffffffffffff021916908373ffffffffffffffffffffffffffffffffffffffff1602179055508381600b018190555060048160100160006101000a81548160ff0219169083600581111561188057fe5b021790555060008090505b8160120154811015611986576000600960008460130160008581526020019081526020016000205481526020019081526020016000209050338160030160006101000a81548173ffffffffffffffffffffffffffffffffffffffff021916908373ffffffffffffffffffffffffffffffffffffffff160217905550338160050160006101000a81548173ffffffffffffffffffffffffffffffffffffffff021916908373ffffffffffffffffffffffffffffffffffffffff1602179055508481600b0181905550600481600c0160006101000a81548160ff0219169083600581111561197357fe5b021790555050808060010191505061188b565b507f2cc0966d70ef0763724446017250e9affaaee6480282b4a02e9a3d39a082a7e381600001546040518082815260200191505060405180910390a15050505050565b6119d16127c0565b156119ef573373ffffffffffffffffffffffffffffffffffffffff16ff5b565b6119fa33612e55565b565b611a0533612817565b611a77576040517f08c379a000000000000000000000000000000000000000000000000000000000815260040180806020018281038252601b8152602001807f4f6e6c79206120436f7374756d65722063616e20646f2074686973000000000081525060200191505060405180910390fd5b611a8081612eaf565b50565b611a8c33612817565b611afe576040517f08c379a000000000000000000000000000000000000000000000000000000000815260040180806020018281038252601b8152602001807f4f6e6c79206120436f7374756d65722063616e20646f2074686973000000000081525060200191505060405180910390fd5b8060046005811115611b0c57fe5b60096000838152602001908152602001600020600c0160009054906101000a900460ff166005811115611b3b57fe5b14611bae576040517f08c379a000000000000000000000000000000000000000000000000000000000815260040180806020018281038252600b8152602001807f4e6f7420696e2053686f7000000000000000000000000000000000000000000081525060200191505060405180910390fd5b60096000838152602001908152602001600020600b015480341015611c3b576040517f08c379a000000000000000000000000000000000000000000000000000000000815260040180806020018281038252600f8152602001807f4e6f74205061696420456e6f756768000000000000000000000000000000000081525060200191505060405180910390fd5b826000600960008681526020019081526020016000209050600581600c0160006101000a81548160ff02191690836005811115611c7457fe5b0217905550338160030160006101000a81548173ffffffffffffffffffffffffffffffffffffffff021916908373ffffffffffffffffffffffffffffffffffffffff160217905550338160060160006101000a81548173ffffffffffffffffffffffffffffffffffffffff021916908373ffffffffffffffffffffffffffffffffffffffff16021790555060008160050160009054906101000a900473ffffffffffffffffffffffffffffffffffffffff1690508073ffffffffffffffffffffffffffffffffffffffff166108fc83600b01549081150290604051600060405180830381858888f19350505050158015611d72573d6000803e3d6000fd5b507f92f64ca637d023f354075a4be751b169c1a8a9ccb6d33cdd0cb352054399572782600101546040518082815260200191505060405180910390a15050600060096000838152602001908152602001600020600b01549050600081340390503373ffffffffffffffffffffffffffffffffffffffff166108fc829081150290604051600060405180830381858888f19350505050158015611e18573d6000803e3d6000fd5b50505050505050565b611e2a33612834565b611e3357600080fd5b611e3b6133e5565b8781600001818152505086816020019073ffffffffffffffffffffffffffffffffffffffff16908173ffffffffffffffffffffffffffffffffffffffff168152505086816040019073ffffffffffffffffffffffffffffffffffffffff16908173ffffffffffffffffffffffffffffffffffffffff1681525050858160a00181905250848160e001818152505060008161020001906005811115611edb57fe5b90816005811115611ee857fe5b8152505083816101a0018190525082816101c0018190525081816101e0018190525080600a6000836000015181526020019081526020016000206000820151816000015560208201518160010160006101000a81548173ffffffffffffffffffffffffffffffffffffffff021916908373ffffffffffffffffffffffffffffffffffffffff16021790555060408201518160020160006101000a81548173ffffffffffffffffffffffffffffffffffffffff021916908373ffffffffffffffffffffffffffffffffffffffff16021790555060608201518160030160006101000a81548173ffffffffffffffffffffffffffffffffffffffff021916908373ffffffffffffffffffffffffffffffffffffffff16021790555060808201518160040160006101000a81548173ffffffffffffffffffffffffffffffffffffffff021916908373ffffffffffffffffffffffffffffffffffffffff16021790555060a08201518160050190805190602001906120649291906134da565b5060c08201518160060190805190602001906120819291906134da565b5060e082015181600701556101008201518160080155610120820151816009015561014082015181600a015561016082015181600b015561018082015181600c01556101a082015181600d0190805190602001906120e09291906134da565b506101c082015181600e0190805190602001906120fe9291906134da565b506101e082015181600f01908051906020019061211c9291906134da565b506102008201518160100160006101000a81548160ff0219169083600581111561214257fe5b02179055506102208201518160110190805190602001906121649291906134da565b50610240820151816012015590505060016007600082825401925050819055507f8e55ccfc9778ff8eba1646d765cf1982537ce0f9257054a17b48aad745250183886040518082815260200191505060405180910390a15050505050505050565b6121ce336111fb565b6121d757600080fd5b83600060058111156121e557fe5b600a600083815260200190815260200160002060100160009054906101000a900460ff16600581111561221457fe5b1461221e57600080fd5b6000600a60008781526020019081526020016000209050338160010160006101000a81548173ffffffffffffffffffffffffffffffffffffffff021916908373ffffffffffffffffffffffffffffffffffffffff160217905550338160030160006101000a81548173ffffffffffffffffffffffffffffffffffffffff021916908373ffffffffffffffffffffffffffffffffffffffff160217905550848160060190805190602001906122d392919061355a565b5082816008018190555060018160100160006101000a81548160ff021916908360058111156122fe57fe5b02179055508381600c01819055507fbc3979d8d5506915d003e5226085458b0197152ba2fbb08d49992370051ba6ed81600001546040518082815260200191505060405180910390a1505050505050565b6123576127c0565b6123c9576040517f08c379a000000000000000000000000000000000000000000000000000000000815260040180806020018281038252600e8152602001807f4e6f7420746865206f776e65722100000000000000000000000000000000000081525060200191505060405180910390fd5b600073ffffffffffffffffffffffffffffffffffffffff166000809054906101000a900473ffffffffffffffffffffffffffffffffffffffff1673ffffffffffffffffffffffffffffffffffffffff167f5c486528ec3e3f0ea91181cff8116f02bfa350e03b8b6f12e00765adbb5af85c60405160405180910390a360008060006101000a81548173ffffffffffffffffffffffffffffffffffffffff021916908373ffffffffffffffffffffffffffffffffffffffff160217905550565b612491336116da565b61249a57600080fd5b6124a381612f09565b50565b6124af336111fb565b6124b857600080fd5b81600260058111156124c657fe5b600a600083815260200190815260200160002060100160009054906101000a900460ff1660058111156124f557fe5b14612568576040517f08c379a000000000000000000000000000000000000000000000000000000000815260040180806020018281038252600b8152602001807f4e6f7420426f74746c656400000000000000000000000000000000000000000081525060200191505060405180910390fd5b6000600a60008581526020019081526020016000209050338160010160006101000a81548173ffffffffffffffffffffffffffffffffffffffff021916908373ffffffffffffffffffffffffffffffffffffffff160217905550338160040160006101000a81548173ffffffffffffffffffffffffffffffffffffffff021916908373ffffffffffffffffffffffffffffffffffffffff1602179055508281600a018190555060038160100160006101000a81548160ff0219169083600581111561262f57fe5b021790555060008090505b816012015481101561272c576000600960008460130160008581526020019081526020016000205481526020019081526020016000209050338160030160006101000a81548173ffffffffffffffffffffffffffffffffffffffff021916908373ffffffffffffffffffffffffffffffffffffffff160217905550338160050160006101000a81548173ffffffffffffffffffffffffffffffffffffffff021916908373ffffffffffffffffffffffffffffffffffffffff160217905550600381600c0160006101000a81548160ff0219169083600581111561271957fe5b021790555050808060010191505061263a565b507ffcc296b8bdd64e3f1d1faadef50cb2d6550f645316330fe57cb1dd7e0612ead081600001546040518082815260200191505060405180910390a150505050565b61277733612834565b61278057600080fd5b61278981612f63565b50565b61279533612fbd565b565b60008060009054906101000a900473ffffffffffffffffffffffffffffffffffffffff16905090565b60008060009054906101000a900473ffffffffffffffffffffffffffffffffffffffff1673ffffffffffffffffffffffffffffffffffffffff163373ffffffffffffffffffffffffffffffffffffffff1614905090565b600061282d826004612d6a90919063ffffffff16565b9050919050565b600061284a826001612d6a90919063ffffffff16565b9050919050565b61285a336111fb565b61286357600080fd5b816001600581111561287157fe5b600a600083815260200190815260200160002060100160009054906101000a900460ff1660058111156128a057fe5b14612913576040517f08c379a000000000000000000000000000000000000000000000000000000000815260040180806020018281038252600b8152602001807f4e6f74205072657373656400000000000000000000000000000000000000000081525060200191505060405180910390fd5b6000600a6000858152602001908152602001600020905082816009018190555060028160100160006101000a81548160ff0219169083600581111561295457fe5b02179055506103e88160000154026006819055506000816012018190555060008090505b81600c0154811015612c8c5761298c61331a565b60055481602001818152505081600654018160000181815250506006546103e860055402018160400181815250508260000154816101400181815250508260030160009054906101000a900473ffffffffffffffffffffffffffffffffffffffff16816060019073ffffffffffffffffffffffffffffffffffffffff16908173ffffffffffffffffffffffffffffffffffffffff16815250508260030160009054906101000a900473ffffffffffffffffffffffffffffffffffffffff16816080019073ffffffffffffffffffffffffffffffffffffffff16908173ffffffffffffffffffffffffffffffffffffffff1681525050848160e00181815250508060096000600554815260200190815260200160002060008201518160000155602082015181600101556040820151816002015560608201518160030160006101000a81548173ffffffffffffffffffffffffffffffffffffffff021916908373ffffffffffffffffffffffffffffffffffffffff16021790555060808201518160040160006101000a81548173ffffffffffffffffffffffffffffffffffffffff021916908373ffffffffffffffffffffffffffffffffffffffff16021790555060a08201518160050160006101000a81548173ffffffffffffffffffffffffffffffffffffffff021916908373ffffffffffffffffffffffffffffffffffffffff16021790555060c08201518160060160006101000a81548173ffffffffffffffffffffffffffffffffffffffff021916908373ffffffffffffffffffffffffffffffffffffffff16021790555060e082015181600701556101008201518160080155610120820151816009015561014082015181600a015561016082015181600b015561018082015181600c0160006101000a81548160ff02191690836005811115612c3657fe5b021790555090505060055483601301600084815260200190815260200160002081905550600183601201600082825401925050819055506001600560008282540192505081905550508080600101915050612978565b507f8aff1823bf9f30e2f7eacb17de47cc2917592a34188a0b47c0c228c82c38fc5481600001546040518082815260200191505060405180910390a150505050565b612cd733613017565b565b612ce233613071565b565b612cec6127c0565b612d5e576040517f08c379a000000000000000000000000000000000000000000000000000000000815260040180806020018281038252600e8152602001807f4e6f7420746865206f776e65722100000000000000000000000000000000000081525060200191505060405180910390fd5b612d67816130cb565b50565b60008073ffffffffffffffffffffffffffffffffffffffff168273ffffffffffffffffffffffffffffffffffffffff161415612da557600080fd5b8260000160008373ffffffffffffffffffffffffffffffffffffffff1673ffffffffffffffffffffffffffffffffffffffff16815260200190815260200160002060009054906101000a900460ff16905092915050565b612e108160026131c390919063ffffffff16565b8073ffffffffffffffffffffffffffffffffffffffff167ea0477dded24b6f3ca0efb56770e84d7af0117bde8073e93a34e2f0b67f629260405160405180910390a250565b612e6981600361326f90919063ffffffff16565b8073ffffffffffffffffffffffffffffffffffffffff167fd50d62b726467f70db12c0823c62ab5a8a5e5075539f68fdfa111b2e77f203e960405160405180910390a250565b612ec38160046131c390919063ffffffff16565b8073ffffffffffffffffffffffffffffffffffffffff167f37f2bb8f4596c61172526eb12f70fe6a1a9653a0b5fedbe1031b7a2bf71a27eb60405160405180910390a250565b612f1d8160036131c390919063ffffffff16565b8073ffffffffffffffffffffffffffffffffffffffff167f121731828b85b443d173e8dc86615a38927a5b1035349922533c0b02faa1103d60405160405180910390a250565b612f778160016131c390919063ffffffff16565b8073ffffffffffffffffffffffffffffffffffffffff167f2e0ded4123377a3c2bc9a26f1717655a129e2f20752924d42e730ec89c83dbd060405160405180910390a250565b612fd181600161326f90919063ffffffff16565b8073ffffffffffffffffffffffffffffffffffffffff167fa5e0f060af304ab17dd418c7927e3da3ae7868189bf387aee09ab179ccc572f260405160405180910390a250565b61302b81600461326f90919063ffffffff16565b8073ffffffffffffffffffffffffffffffffffffffff167f7c5ae0e07939db69fda08596f8822b6c8b745657804957ef938a645cff7fb5f360405160405180910390a250565b61308581600261326f90919063ffffffff16565b8073ffffffffffffffffffffffffffffffffffffffff167f83d8cce936a4bacce731675cb6d6de235957309cc48eb6a36aa7ae1811eb9fab60405160405180910390a250565b600073ffffffffffffffffffffffffffffffffffffffff168173ffffffffffffffffffffffffffffffffffffffff16141561310557600080fd5b8073ffffffffffffffffffffffffffffffffffffffff166000809054906101000a900473ffffffffffffffffffffffffffffffffffffffff1673ffffffffffffffffffffffffffffffffffffffff167f5c486528ec3e3f0ea91181cff8116f02bfa350e03b8b6f12e00765adbb5af85c60405160405180910390a3806000806101000a81548173ffffffffffffffffffffffffffffffffffffffff021916908373ffffffffffffffffffffffffffffffffffffffff16021790555050565b600073ffffffffffffffffffffffffffffffffffffffff168173ffffffffffffffffffffffffffffffffffffffff1614156131fd57600080fd5b6132078282612d6a565b1561321157600080fd5b60018260000160008373ffffffffffffffffffffffffffffffffffffffff1673ffffffffffffffffffffffffffffffffffffffff16815260200190815260200160002060006101000a81548160ff0219169083151502179055505050565b600073ffffffffffffffffffffffffffffffffffffffff168173ffffffffffffffffffffffffffffffffffffffff1614156132a957600080fd5b6132b38282612d6a565b6132bc57600080fd5b60008260000160008373ffffffffffffffffffffffffffffffffffffffff1673ffffffffffffffffffffffffffffffffffffffff16815260200190815260200160002060006101000a81548160ff0219169083151502179055505050565b604051806101a00160405280600081526020016000815260200160008152602001600073ffffffffffffffffffffffffffffffffffffffff168152602001600073ffffffffffffffffffffffffffffffffffffffff168152602001600073ffffffffffffffffffffffffffffffffffffffff168152602001600073ffffffffffffffffffffffffffffffffffffffff1681526020016000815260200160008152602001600081526020016000815260200160008152602001600060058111156133df57fe5b81525090565b60405180610260016040528060008152602001600073ffffffffffffffffffffffffffffffffffffffff168152602001600073ffffffffffffffffffffffffffffffffffffffff168152602001600073ffffffffffffffffffffffffffffffffffffffff168152602001600073ffffffffffffffffffffffffffffffffffffffff1681526020016060815260200160608152602001600081526020016000815260200160008152602001600081526020016000815260200160008152602001606081526020016060815260200160608152602001600060058111156134c657fe5b815260200160608152602001600081525090565b828054600181600116156101000203166002900490600052602060002090601f016020900481019282601f1061351b57805160ff1916838001178555613549565b82800160010185558215613549579182015b8281111561354857825182559160200191906001019061352d565b5b50905061355691906135da565b5090565b828054600181600116156101000203166002900490600052602060002090601f016020900481019282601f1061359b57805160ff19168380011785556135c9565b828001600101855582156135c9579182015b828111156135c85782518255916020019190600101906135ad565b5b5090506135d691906135da565b5090565b6135fc91905b808211156135f85760008160009055506001016135e0565b5090565b9056fea165627a7a72305820dbd0beddeee45f985cf0e384c01e6729038bcfea84c6e53c50bb39ea787710b60029",
  "source": "pragma solidity ^0.5.8;\n// Define a contract 'Supplychain'\nimport '../access_control/CostumerRole.sol';\nimport '../access_control/FarmerRole.sol';\nimport '../access_control/ShopRole.sol';\nimport '../access_control/MillRole.sol';\nimport '../core/Ownable.sol';\n\n\n/** @title  Organic Oil Manufacturer\n  * @author Stefan Zils\n  * @notice Organic Oil Manufacturer SupplyChain implementation for farmer to customer.\n  */\ncontract SupplyChain is Ownable, FarmerRole, MillRole, ShopRole, CostumerRole {\n\n  // Define a variable called 'upc' for Universal Product Code (UPC)\n  uint  upc;\n  // Define a variable called 'sku' for Stock Keeping Unit (SKU)\n  uint  sku;\n  // Oil Production Sequence\n  uint oilProductionID;\n  // Fields for production\n  uint fieldIDs;\n  // Define\n  uint constant factorProductID = 1000;\n\n  // Define a public mapping 'bottles' that maps the UPC to a bottle.\n  mapping(uint => Bottle) bottles;\n  // Define a public papping 'oilProductions' that maps the productionID to an OilProduction.\n  mapping(uint => OilProduction) oilProductions;\n\n\n   // Define enum 'State' with the following values:\n  enum State\n  {\n      Harvested,     // 0\n      Pressed,       // 1\n      Bottled,       // 2\n      Delivered,     // 3\n      InShop,         // 4\n      Sold           // 5\n  }\n\n\n  // Struct of the oil production process.\n  struct OilProduction {\n      uint productionID;    // ID of Oil Production\n\n      address ownerID;\n      address farmerID;     // Metamask-Ethereum address of the Farmer\n      address millID;       // Metamask-Ethereum address of the Mill, Redundancy with OilProduction\n      address shopID;\n\n      string farmerName;    // Name of the Farme\n      string millName;      // Name of the Mill\n\n      // Date of production step\n      uint harvestDate;\n      uint pressDate;\n      uint bottlingDate;\n      uint deliveryDate;\n      uint inShopDate;\n      uint amountLiters;\n\n      string fieldName;      // Field Name\n      string fieldLatitude;\n      string fieldLongitude;\n\n      State productionState;  // state of production\n      string notice;\n\n      uint bottleCount;\n      mapping (uint => uint)  bottleIDs;\n  }\n\n  // Define a struct 'Item' with the following fields:\n  struct Bottle {\n      uint    sku;        // Stock Keeping Unit (SKU)\n      uint    upc;        // Universal Product Code (UPC), generated by the Farmer, goes on the package, can be verified by the Consumer\n      uint    productID;  // Product ID potentially a combination of upc + sku\n\n      address ownerID;    // Metamask-Ethereum address of the current owner as the product moves through 8 stages\n      address millID;\n      address shopID;     // Metamask-Ethereum address of the Shop,\n      address costumerID; // Metamask-Ethereum address of the Consumer,\n\n      uint    bottleDate;\n      uint    inShopDate;\n      uint    sellDate;\n\n      uint    oilProductionID;  // OilProduction ID (Foreign Key, Reference)\n      uint    price;            // Bottle Price\n\n      State   bottleState;      // Product State as represented in the enum above\n  }\n\n  // Define 8 events with the same 8 state values and accept 'upc' as input argument\n  event Harvested(uint productionID);\n  event Pressed(uint productionID);\n  event Bottled(uint productionID);\n  event Delivered(uint productionID);\n  event InShop(uint upc);\n  event Sold(uint upc);\n\n  // Define a modifer that checks to see if msg.sender == owner of the contract\n  modifier onlyOwner() {\n      require(isOwner(), \"Not the owner!\");\n      _;\n  }\n\n  // Define a modifer that verifies the Caller\n  modifier verifyCaller (address _address) {\n    require(msg.sender == _address, \"Not the Caller\");\n    _;\n  }\n\n  // Define a modifier that checks if the paid amount is sufficient to cover the price\n  modifier paidEnough(uint _price) {\n    require(msg.value >= _price, \"Not Paid Enough\");\n    _;\n  }\n\n  // Define a modifier that checks the price and refunds the remaining balance\n  modifier checkValue(uint _upc) {\n    _;\n    uint _price = bottles[_upc].price;\n    uint amountToReturn = msg.value - _price;\n    msg.sender.transfer(amountToReturn);\n  }\n\n  // Define a modifier that checks if an item.state of a upc is Harvested\n  modifier harvested(uint _productionID) {\n    require(oilProductions[_productionID].productionState == State.Harvested);\n    _;\n  }\n\n  // Define a modifier that checks if an item.state of a upc is Processed\n  modifier pressed(uint _productionID) {\n    require(oilProductions[_productionID].productionState == State.Pressed, \"Not Pressed\");\n    _;\n  }\n\n  // Define a modifier that checks if an item.state of a upc is Packed\n  modifier bottled(uint _productionID) {\n    require(oilProductions[_productionID].productionState == State.Bottled, \"Not Bottled\");\n    _;\n  }\n\n  // Define a modifier that checks if an item.state of a upc is ForSale\n  modifier delivered(uint _productionID) {\n    require(oilProductions[_productionID].productionState == State.Delivered, \"Not Delivered\");\n    _;\n  }\n\n  // Define a modifier that checks if an item.state of a upc is Sold\n  modifier inShop(uint _upc) {\n    require(bottles[_upc].bottleState == State.InShop, \"Not in Shop\");\n    _;\n  }\n\n  // Define a modifier that checks if an item.state of a upc is Shipped\n  modifier sold(uint _upc) {\n    require(bottles[_upc].bottleState  == State.Sold, \"Not Sold\");\n    _;\n  }\n\n  // In the constructor set 'owner' to the address that instantiated the contract\n  // and set 'sku' to 1\n  // and set 'upc' to 1\n  constructor() public payable {\n      upc = 1;\n      oilProductionID = 1;\n  }\n\n  // Define a function 'kill' if required\n  function kill() public {\n    if (isOwner()) {\n      selfdestruct(msg.sender);\n    }\n  }\n\n   /**\n     * @dev describe the harvest as the first step of the OilProduction.\n     * @param _productionID ID of the OilProduction process.\n     * @param _farmerID address of the farmer\n     * @param _farmerName the name of the farm.\n     * @param _harvestDate date of harvesting.\n     * @param _fieldName the name of the field.\n     * @param _latitude the latitude of the field.\n     * @param _longitude the longitude of the field.\n     * @notice emit the Harvested Event. Only farmers can trigger this method.\n     */\n  function harvest(uint _productionID, address _farmerID, string memory  _farmerName, uint _harvestDate,\n      string memory _fieldName, string memory _latitude, string memory _longitude)\n      public\n      onlyFarmer()\n  {\n      OilProduction memory production;\n      production.productionID = _productionID;\n      production.ownerID = _farmerID;\n      production.farmerID = _farmerID;\n\n      production.farmerName = _farmerName;\n      production.harvestDate = _harvestDate;\n      production.productionState = State.Harvested;\n      production.fieldName = _fieldName;\n      production.fieldLatitude = _latitude;\n      production.fieldLongitude = _longitude;\n\n      oilProductions[production.productionID] = production;\n      oilProductionID += 1;\n\n      // Emit the appropriate event\n      emit Harvested(_productionID);\n  }\n\n\n   /**\n     * @dev describe the oil pressing process of the OilProduction.\n     * @param _productionID ID of the OilProduction process.\n     * @param _millName name of the mill.\n     * @param _amountLiters the number of liters of pressed oil.\n     * @param _pressDate date of the pressing.\n     * @notice emit the Pressed Event. Only millers can trigger this method.\n     */\n  function press(uint _productionID, string memory _millName, uint _amountLiters, uint _pressDate)\n      public\n      onlyMill()\n      harvested(_productionID)\n  {\n      OilProduction storage production = oilProductions[_productionID];\n\n      production.ownerID = msg.sender;\n      production.millID = msg.sender;\n\n      production.millName = _millName;\n      production.pressDate = _pressDate;\n      production.productionState = State.Pressed;\n      production.amountLiters = _amountLiters;\n\n      emit Pressed(production.productionID);\n  }\n\n  function bottling(uint _productionID, uint _bottlingDate)\n      public\n      onlyMill\n      pressed(_productionID)\n  {\n      OilProduction storage production = oilProductions[_productionID];\n      production.bottlingDate = _bottlingDate;\n      production.productionState = State.Bottled;\n\n      // generate sku with oilProductionID at the beginning.\n      sku=(production.productionID * factorProductID);\n      production.bottleCount=0;\n      for (uint i=0; i < production.amountLiters; i++) {\n        Bottle memory bottle;\n        bottle.upc = upc;\n        bottle.sku = sku + i;\n\n        // generate productionID from upc and sku.\n        bottle.productID = (upc * factorProductID) + sku;\n        bottle.oilProductionID = production.productionID;\n        bottle.ownerID = production.millID;\n        bottle.millID = production.millID;\n        bottle.bottleDate = _bottlingDate;\n\n        bottles[upc] = bottle;\n        // List for delivery and later control\n        production.bottleIDs[i] = upc;\n        production.bottleCount += 1;\n        upc += 1;\n      }\n      emit Bottled(production.productionID);\n  }\n\n  function deliver(uint _productionID, uint _deliveryDate)\n      public\n      onlyMill\n      bottled(_productionID)\n   {\n      OilProduction storage production = oilProductions[_productionID];\n      production.ownerID = msg.sender;\n      production.shopID = msg.sender;\n      production.deliveryDate = _deliveryDate;\n      production.productionState = State.Delivered;\n\n      for (uint i=0; i < production.bottleCount; i++) {\n          Bottle storage bottle = bottles[production.bottleIDs[i]];\n          bottle.ownerID = msg.sender;\n          bottle.shopID = msg.sender;\n          bottle.bottleState = State.Delivered;\n      }\n\n      emit Delivered(production.productionID);\n  }\n\n\n  function getDelivery(uint _productionID, uint _inShopDate, uint _price)\n      public\n      onlyShop\n      delivered(_productionID)\n  {\n    OilProduction storage production = oilProductions[_productionID];\n    production.ownerID = msg.sender;\n    production.shopID = msg.sender;\n    production.inShopDate = _inShopDate;\n    production.productionState = State.InShop;\n\n    for (uint i=0; i < production.bottleCount; i++) {\n      Bottle storage bottle = bottles[production.bottleIDs[i]];\n      bottle.ownerID = msg.sender;\n      bottle.shopID = msg.sender;\n      bottle.price = _price;\n      bottle.bottleState = State.InShop;\n    }\n\n    emit InShop(production.productionID);\n  }\n\n  function sellBottle(uint _upc)\n    public\n    payable\n    onlyCostumer\n    inShop(_upc)\n    paidEnough(bottles[_upc].price)\n    checkValue(_upc)\n  {\n    Bottle storage bottle = bottles[_upc];\n\n    bottle.bottleState = State.Sold;\n    bottle.ownerID = msg.sender;\n    bottle.costumerID = msg.sender;\n\n    address payable shopID = address(uint160(bottle.shopID));\n    shopID.transfer(bottle.price);\n\n    emit Sold(bottle.upc);\n  }\n\n  function fetchOilProductionFarm(uint _productionID) public view returns\n  (\n      address,\n      address,\n      string memory,\n      uint,\n      string memory,\n      string memory,\n      string memory,\n      State\n  )\n  {\n      OilProduction storage oilProduction = oilProductions[_productionID];\n      return\n      (\n          oilProduction.ownerID,\n          oilProduction.farmerID,\n          oilProduction.farmerName,\n          oilProduction.harvestDate,\n          oilProduction.fieldName,\n          oilProduction.fieldLatitude,\n          oilProduction.fieldLongitude,\n          oilProduction.productionState\n      );\n  }\n\n  function fetchOilProduction(uint _productionID) public view returns\n  (\n      address,\n      address,\n      address,\n      string memory,\n      uint,\n      uint,\n      uint,\n      uint,\n      uint,  \n      State\n  )\n  {\n      OilProduction storage oilProduction = oilProductions[_productionID];\n      return\n      (\n          oilProduction.ownerID,\n          oilProduction.millID,\n          oilProduction.shopID,\n          oilProduction.millName,\n          oilProduction.pressDate,\n          oilProduction.amountLiters,\n          oilProduction.bottlingDate,\n          oilProduction.deliveryDate,\n          oilProduction.inShopDate,     \n          oilProduction.productionState\n      );\n  }\n\n\n  // Define a function 'fetchItemBufferTwo' that fetches the data\n  function fetchBottle(uint _upc) public view returns\n  (\n      uint,\n      uint,\n      address,\n      address,\n      address,\n      address,\n      uint,\n      uint\n  )\n  {\n    Bottle memory bottle = bottles[_upc];\n    return\n    (\n      bottle.sku,\n      bottle.productID,\n      bottle.ownerID,\n      bottle.millID,\n      bottle.shopID,\n      bottle.costumerID,\n      bottle.bottleDate,\n      bottle.inShopDate\n\n    );\n  }\n}\n",
  "sourcePath": "/Users/stefanzils/Documents/GitHub/organicOilSupply/impl/contracts/base/SupplyChain.sol",
  "compiler": {
    "name": "solc",
    "version": "0.5.8+commit.23d335f2.Emscripten.clang"
  },
  "schemaVersion": "3.0.14",
  "updatedAt": "2019-09-26T18:53:27.842Z",
  "devdoc": {
    "author": "Stefan Zils",
    "methods": {
      "harvest(uint256,address,string,uint256,string,string,string)": {
        "details": "describe the harvest as the first step of the OilProduction.",
        "params": {
          "_farmerID": "address of the farmer",
          "_farmerName": "the name of the farm.",
          "_fieldName": "the name of the field.",
          "_harvestDate": "date of harvesting.",
          "_latitude": "the latitude of the field.",
          "_longitude": "the longitude of the field.",
          "_productionID": "ID of the OilProduction process."
        }
      },
      "press(uint256,string,uint256,uint256)": {
        "details": "describe the oil pressing process of the OilProduction.",
        "params": {
          "_amountLiters": "the number of liters of pressed oil.",
          "_millName": "name of the mill.",
          "_pressDate": "date of the pressing.",
          "_productionID": "ID of the OilProduction process."
        }
      }
    },
    "title": "Organic Oil Manufacturer"
  },
  "userdoc": {
    "methods": {
      "harvest(uint256,address,string,uint256,string,string,string)": {
        "notice": "emit the Harvested Event. Only farmers can trigger this method."
      },
      "isOwner()": {
        "notice": "Check if the calling address is the owner of the contract"
      },
      "owner()": {
        "notice": "Look up the address of the owner"
      },
      "press(uint256,string,uint256,uint256)": {
        "notice": "emit the Pressed Event. Only millers can trigger this method."
      },
      "renounceOwnership()": {
        "notice": "Define a function to renounce ownerhip"
      },
      "transferOwnership(address)": {
        "notice": "Define a public function to transfer ownership"
      }
    },
    "notice": "Organic Oil Manufacturer SupplyChain implementation for farmer to customer."
  }
}