{
  "contractName": "CustomerRole",
  "abi": [
    {
      "inputs": [],
      "payable": false,
      "stateMutability": "nonpayable",
      "type": "constructor"
    },
    {
      "anonymous": false,
      "inputs": [
        {
          "indexed": true,
          "name": "account",
          "type": "address"
        }
      ],
      "name": "CustomerAdded",
      "type": "event"
    },
    {
      "anonymous": false,
      "inputs": [
        {
          "indexed": true,
          "name": "account",
          "type": "address"
        }
      ],
      "name": "CustomerRemoved",
      "type": "event"
    },
    {
      "constant": true,
      "inputs": [
        {
          "name": "account",
          "type": "address"
        }
      ],
      "name": "isCustomer",
      "outputs": [
        {
          "name": "",
          "type": "bool"
        }
      ],
      "payable": false,
      "stateMutability": "view",
      "type": "function"
    },
    {
      "constant": false,
      "inputs": [
        {
          "name": "account",
          "type": "address"
        }
      ],
      "name": "addCustomer",
      "outputs": [],
      "payable": false,
      "stateMutability": "nonpayable",
      "type": "function"
    },
    {
      "constant": false,
      "inputs": [],
      "name": "renounceCustomer",
      "outputs": [],
      "payable": false,
      "stateMutability": "nonpayable",
      "type": "function"
    }
  ],
  "bytecode": "0x608060405234801561001057600080fd5b506100203361002560201b60201c565b6101c7565b61003d81600061008360201b6103151790919060201c565b8073ffffffffffffffffffffffffffffffffffffffff167fcd118a02bd36f224f6f1b93812f78d2bbc2c2dc1bc0f60c176e3b4fe09f1483f60405160405180910390a250565b600073ffffffffffffffffffffffffffffffffffffffff168173ffffffffffffffffffffffffffffffffffffffff1614156100bd57600080fd5b6100cd828261013560201b60201c565b156100d757600080fd5b60018260000160008373ffffffffffffffffffffffffffffffffffffffff1673ffffffffffffffffffffffffffffffffffffffff16815260200190815260200160002060006101000a81548160ff0219169083151502179055505050565b60008073ffffffffffffffffffffffffffffffffffffffff168273ffffffffffffffffffffffffffffffffffffffff16141561017057600080fd5b8260000160008373ffffffffffffffffffffffffffffffffffffffff1673ffffffffffffffffffffffffffffffffffffffff16815260200190815260200160002060009054906101000a900460ff16905092915050565b6103ed806101d66000396000f3fe608060405234801561001057600080fd5b50600436106100415760003560e01c806328fd5e8314610046578063ac98e6db146100a2578063ad973d74146100ac575b600080fd5b6100886004803603602081101561005c57600080fd5b81019080803573ffffffffffffffffffffffffffffffffffffffff1690602001909291905050506100f0565b604051808215151515815260200191505060405180910390f35b6100aa61010d565b005b6100ee600480360360208110156100c257600080fd5b81019080803573ffffffffffffffffffffffffffffffffffffffff169060200190929190505050610118565b005b600061010682600061012490919063ffffffff16565b9050919050565b610116336101b6565b565b61012181610210565b50565b60008073ffffffffffffffffffffffffffffffffffffffff168273ffffffffffffffffffffffffffffffffffffffff16141561015f57600080fd5b8260000160008373ffffffffffffffffffffffffffffffffffffffff1673ffffffffffffffffffffffffffffffffffffffff16815260200190815260200160002060009054906101000a900460ff16905092915050565b6101ca81600061026a90919063ffffffff16565b8073ffffffffffffffffffffffffffffffffffffffff167fb4c88a9c5cd906354abdd1cc29e4f94c6c4de90754fb80ce51e6a33417bc81b660405160405180910390a250565b61022481600061031590919063ffffffff16565b8073ffffffffffffffffffffffffffffffffffffffff167fcd118a02bd36f224f6f1b93812f78d2bbc2c2dc1bc0f60c176e3b4fe09f1483f60405160405180910390a250565b600073ffffffffffffffffffffffffffffffffffffffff168173ffffffffffffffffffffffffffffffffffffffff1614156102a457600080fd5b6102ae8282610124565b6102b757600080fd5b60008260000160008373ffffffffffffffffffffffffffffffffffffffff1673ffffffffffffffffffffffffffffffffffffffff16815260200190815260200160002060006101000a81548160ff0219169083151502179055505050565b600073ffffffffffffffffffffffffffffffffffffffff168173ffffffffffffffffffffffffffffffffffffffff16141561034f57600080fd5b6103598282610124565b1561036357600080fd5b60018260000160008373ffffffffffffffffffffffffffffffffffffffff1673ffffffffffffffffffffffffffffffffffffffff16815260200190815260200160002060006101000a81548160ff021916908315150217905550505056fea165627a7a7230582055d8f2b9189762689cbf9f1fd6b3eb01fff4a2b6d9d6186da54161a6bca5310e0029",
  "source": "pragma solidity ^0.5.8;\n\n// Import the library 'Roles'\nimport \"./Roles.sol\";\n\n// Define a contract 'CustomerRole' to manage this role - add, remove, check\ncontract CustomerRole {\n    using Roles for Roles.Role;\n\n    event CustomerAdded(address indexed account);\n    event CustomerRemoved(address indexed account);\n\n    Roles.Role private Customers;\n\n    constructor() public {\n      _addCustomer(msg.sender);\n    }\n\n    modifier onlyCustomer(address CustomerID) {\n      require(\n        isCustomer(CustomerID), 'Only a Customer can do this');\n      _;\n    }\n\n    function isCustomer(address account) public view returns (bool) {\n      return Customers.has(account);\n    }\n\n    function addCustomer(address account) public {\n      _addCustomer(account);\n    }\n\n    function renounceCustomer() public {\n      _removeCustomer(msg.sender);\n    }\n\n    function _addCustomer(address account) internal {\n      Customers.add(account);\n      emit CustomerAdded(account);\n    }\n\n    function _removeCustomer(address account) internal {\n      Customers.remove(account);\n      emit CustomerRemoved(account);\n    }\n}\n",
  "sourcePath": "/Users/stefanzils/Documents/GitHub/organicOilSupply/impl/contracts/access_control/CustomerRole.sol",
  "compiler": {
    "name": "solc",
    "version": "0.5.8+commit.23d335f2.Emscripten.clang"
  },
  "schemaVersion": "3.0.16",
  "updatedAt": "2019-10-04T23:22:18.164Z",
  "devdoc": {
    "methods": {}
  },
  "userdoc": {
    "methods": {}
  }
}